:020000040800F2
:100000000000012071070008190700081B070008FD
:100010001D0700081F070008210700080000000056
:10002000000000000000000000000000230700089E
:10003000250700080000000027070008290700081E
:10004000C1070008C1070008C1070008C107000870
:10005000C1070008C1070008C1070008C107000860
:10006000C1070008C1070008C1070008C107000850
:10007000C1070008C1070008C1070008C107000840
:10008000C1070008C1070008C1070008C107000830
:100090003107000841070008C1070008C107000830
:1000A000C1070008C1070008C1070008C107000810
:1000B000C10700080000000000000000C1070008A0
:1000C000C10700080000000000000000C107000890
:1000D00000000000C1070008C10700080000000080
:1000E000C1070008C1070008000000000000000070
:1000F0000000000000000000000000000000000000
:10010000000000000000000000000000C10700081F
:10011000000000000000000051070008C1070008AF
:10012000C1070008C1070008C1070008C10700088F
:10013000C1070008000000000000000000000000EF
:10014000C1070008C1070008C1070008C10700086F
:10015000C1070008C1070008C1070008C10700085F
:10016000C1070008C1070008C1070008000000001F
:10017000C1070008C10700080000000000000000DF
:0C018000C1070008C1070008C107000803
:10018C0053B94AB9002908BF00281CBF4FF0FF31F2
:10019C004FF0FF3000F00CB8ADF1080C6DE904CE57
:1001AC0002F0D4FDDDF804E0DDE9022304B0704771
:1001BC00704700BF10B5054C237833B9044B13B10D
:1001CC000448AFF300800123237010BD3C040020D1
:1001DC0000000000BC31000808B5034B1BB10349FB
:1001EC000348AFF3008008BD00000000400400206D
:1001FC00BC31000830B589B00024039404940594F4
:10020C0006940794164BDA6C42F00402DA64DA6C4A
:10021C0002F004020092009ADA6C42F00102DA64F5
:10022C00DA6C02F001020192019ADA6C42F00202DD
:10023C00DA64DB6C03F002030293029B094D224645
:10024C000821284601F022FA082303930123049382
:10025C000594069403A9284601F03CF909B030BD79
:10026C00001002400004004810B5054C082120463F
:10027C0001F011FA01220821204601F007FA10BD05
:10028C000004004872B6FEE708B50B480B4B036040
:10029C004FF4E133436000238360C36003610C229D
:1002AC0042618361C3610362436202F01EFD00B9C7
:1002BC0008BDFFF7E7FF00BF5804002000440040D2
:1002CC0008B50D480D4B0360082343600023836081
:1002DC00C3604FF4403202614FF400124261037666
:1002EC0043768376C3760377437700F0FBFD00B942
:1002FC0008BDFFF7C7FF00BF2805002000640040C1
:10030C0000B587B0002300930193029303930493E9
:10031C0005931848184A026043608360C360036108
:10032C0004224261037643760122C26180F82030B8
:10033C008362C36280F83030436380F8383000F059
:10034C00C5FA90B90D4B0093062301930023029339
:10035C007F2203920422049205936946054800F01B
:10036C00A3FB20B907B05DF804FBFFF78BFFFFF789
:10037C0089FF00BF500500200000045000018021BF
:10038C0000B585B000230193029303930E480F4AE6
:10039C0002604FF4C8524260836042F21073C36033
:1003AC008023836102F000FA50B900230193039378
:1003BC0001A9054802F028FA20B905B05DF804FB44
:1003CC00FFF760FFFFF75EFFDC0400200010004029
:1003DC0000B597B04422002105A802F047FE002387
:1003EC00009301930293039304934FF4007001F074
:1003FC0063F928BB022305934FF4807208921022F4
:10040C0009920F9310930122119208221292072243
:10041C0013921493159305A801F038FA90B90F2391
:10042C00009303210191002302934FF48063039303
:10043C000493684601F060FD30B917B05DF804FB19
:10044C00FFF720FFFFF71EFFFFF71CFF00B589B079
:10045C0000F0DAF9FFF7BCFFFFF7CCFEFFF714FF53
:10046C00FFF72EFFFFF74CFFFFF78AFF00230293E5
:10047C00039304930593069307937B23029303231F
:10048C0006930F4800F0D4FD0E4B9A6D42F010020B
:10049C009A659B6D03F010030193019B0A4802F0CF
:1004AC0043F84FF47A7000F0D1F90821074801F0B5
:1004BC00F2F80023064A02A9014800F0E7FDF0E734
:1004CC002805002000100240DC0400200004004835
:1004DC00D431000882B00A4B1A6E42F001021A663F
:1004EC001A6E02F001020092009A9A6D42F080524C
:1004FC009A659B6D03F080530193019B02B070478A
:10050C000010024010B59CB00446002117911891C0
:10051C0019911A911B91542202A802F0A7FD22688E
:10052C001E4B9A4201D01CB010BD4FF48043029375
:10053C004FF0805314930223039301220492082258
:10054C00059207220692079308934FF08073099344
:10055C0002A801F075FEF0B9114BDA6C42F40052AE
:10056C00DA64DA6C02F400520092009ADA6C42F00F
:10057C000102DA64DB6C03F001030193019B082395
:10058C0017930B2318930023199317A94FF090403E
:10059C0000F0A0FFC7E7FFF775FEDDE70000045091
:1005AC000010024000B589B0002303930493059317
:1005BC000693079302681C4B9A4202D009B05DF86F
:1005CC0004FB03F5D6339A6D42F000729A659A6D6E
:1005DC0002F000720192019ADA6C42F00102DA64C4
:1005EC00DB6C03F001030293029B4FF4C0530393A3
:1005FC0002230493032306930923079303A94FF0C3
:10060C00904000F067FF00221146142000F03AFFE2
:10061C00142000F047FF00221146152000F032FF95
:10062C00152000F03FFFC9E70064004002680E4B44
:10063C009A4200D0704700B583B003F500339A6D31
:10064C0042F010029A659B6D03F010030193019B1D
:10065C0000221146362000F015FF362000F022FF54
:10066C0003B05DF804FB00BF0010004070B59CB0F7
:10067C00044600211791189119911A911B9154223B
:10068C0002A802F0F3FC22681E4B9A4201D01CB067
:10069C0070BD0223029302A801F0D2FD00282ED1D6
:1006AC00194B9A6D42F400329A659A6D02F400323D
:1006BC000092009ADA6C42F00102DA64DB6C03F00F
:1006CC0001030193019B042317930226189600251E
:1006DC00199503241A9407231B9317A94FF09040E4
:1006EC0000F0F8FE4FF400431793189619951A94DE
:1006FC001B9417A94FF0904000F0ECFEC7E7FFF7F2
:10070C00C1FDCDE70044004000100240FEE7FEE7CB
:10071C00FEE7FEE7FEE770477047704708B500F04C
:10072C0083F808BD08B5024800F032FD08BD00BFD3
:10073C002805002008B5024800F02AFD08BD00BFBE
:10074C002805002008B5044801F028FF08210348BB
:10075C0000F0A1FF08BD00BFDC040020000400482D
:10076C0070470000DFF834D0FFF7FAFF0C480D4952
:10077C000D4A002302E0D458C4500433C4188C42F0
:10078C00F9D30A4A0A4C002301E013600432A24256
:10079C00FBD302F047FCFFF759FEFEE700000120F7
:1007AC00000000203C040020383200083C040020EB
:1007BC00BC050020FEE70000104B1B780BB9012094
:1007CC00704710B504464FF47A70B0FBF3F30C4A43
:1007DC001068B0FBF3F000F069FE68B90F2C01D97A
:1007EC0001200AE0002221464FF0FF3000F04AFEC3
:1007FC00044B1C60002000E0012010BD0400002010
:10080C00000000200800002010B5032000F028FE96
:10081C000020FFF7D1FF10B10124204610BD044683
:10082C00FFF758FEF9E70000034B1B78034A1168E9
:10083C000B441360704700BF04000020B405002077
:10084C00014B1868704700BFB405002038B504464A
:10085C00FFF7F6FF0546B4F1FF3F02D0044B1B78BF
:10086C001C44FFF7EDFF401BA042FAD338BD00BF7C
:10087C000400002010B430300B0A9B0003F00C0372
:10088C00C45801F01F014FF01F0C0CFA01FC24EAB4
:10089C000C0CC2F384628A404CEA0202C25010BCB7
:1008AC00704710B414304B0E9B0003F00403C45873
:1008BC00C1F304514FF0070C0CFA01FC24EA0C0CA8
:1008CC008A404CEA0202C25010BC704730B583B06B
:1008DC0000230193002800F0DA800446436D13B323
:1008EC0023689A6812F0005F05D09A6822F02042C3
:1008FC0022F03F029A602268936813F0805F1FD148
:10090C00936823F0104323F03F0343F0805393602C
:10091C00604B1B689B09604AA2FB03239B090133B4
:10092C005B00019309E0FFF7EDFD0023A36584F85C
:10093C005030D5E7019B013B0193019B002BF9D172
:10094C002268936813F0805F78D1636D43F01003D5
:10095C006365A36D43F00103A3650120936813F055
:10096C00040300D00123616D11F0100F40F088805A
:10097C00002B40F08580636D23F4817343F00203F8
:10098C006365936813F0010F0BD1444B9B6813F014
:10099C00010F06D1636842498A6822F47C12134322
:1009AC008B60627E636B43EA4233E2681343A26856
:1009BC00134394F8202043EA0243012A40D0A26A50
:1009CC0022B102F47072E16A0A4313432168CD68C4
:1009DC00344A2A401A43CA6021688B6813F0040316
:1009EC0000D001238A6812F0080200D00122B3B9AA
:1009FC00AAB9237E94F83020520042EA8332CB68A5
:100A0C0023F4804323F002031343CB6094F8383073
:100A1C00012B1AD02268136923F001031361236997
:100A2C00012B24D02268136B23F00F031363636D27
:100A3C0023F0030343F00103636526E000208DE7F8
:100A4C00626A013A43EA4243B9E721680B6923F42D
:100A5C00FF6323F00403E26B256C2A43656C2A4385
:100A6C00A56C2A43134343F001030B61D7E72168BC
:100A7C000B6B23F00F03E269013A13430B63D6E7C8
:100A8C00636D43F010036365012003B030BD01209A
:100A9C00FBE700BF00000020632D3E050000045062
:100AAC000003045007C0F0FFF0B583B0002301939E
:100ABC0090F85030012B00F00A8204460D460123B9
:100ACC0080F8503003689B6813F0040F09D0436D15
:100ADC0043F0200343650120002384F8503003B019
:100AEC00F0BD4B68052B08D8023B032B56D8DFE82A
:100AFC0003F0024B4E510C234B602A686968206846
:100B0C00FFF7B8FE2068836813F0040300D00123BC
:100B1C00826812F0080200D001220BB9002A40D0E2
:100B2C002268936813F0010F17D12B68E868D2F88C
:100B3C00B010C3F3120621EA060100F0180CAA4803
:100B4C0020FA0CF00340C3F312030B43C2F8B0308D
:100B5C00EA68A64B9A4200F0A9802B68A44A13427B
:100B6C0000F0B181A34A926802F0E070A2498B4276
:100B7C0000F05B81A1498B4200F07E81A0498B4241
:100B8C0000F08E810020A7E712234B60B5E71823F5
:100B9C004B60B2E74FF480734B60AEE706234B60BB
:100BAC00ABE7AA682968FFF77CFE69692268D368FD
:100BBC00C3F3C1035B009940286904280ED02E684A
:100BCC00603252F820708F4B3B4006F0F8463143B0
:100BDC000B4343F0004342F82030A1E7136E116E33
:100BEC00C1F384612B68C3F3120080BBC3F384632D
:100BFC00994234D021684B6E4A6EC2F384622B68E2
:100C0C00C3F3120080BBC3F384639A4234D02168CF
:100C1C008B6E8A6EC2F384622B68C3F3120080BBA6
:100C2C00C3F384639A4234D02168CB6ECA6EC2F38C
:100C3C0084622B68C3F3120080BBC3F384639A42B3
:100C4C007FF46EAFCB6E23F00043CB6668E793FA6C
:100C5C00A3F313B1B3FA83F3CAE72023C8E7136EE7
:100C6C0023F000431366C5E793FAA3F313B1B3FA69
:100C7C0083F3CAE72023C8E74B6E23F000434B668F
:100C8C00C5E793FAA3F313B1B3FA83F3CAE72023AE
:100C9C00C8E78B6E23F000438B66C5E793FAA3F38A
:100CAC0013B1B3FA83F3CAE72023C8E720682B6893
:100CBC00C3F312063EBB9A0E013202F01F02092A40
:100CCC008CBF00220122002A55D05EBB990E013147
:100CDC00890601F0F8418EBB4FEA936C0CF1010CC4
:100CEC000CF01F0C012202FA0CF21143AEBB9B0E4E
:100CFC00013303F01F0303EB43031B051943AA68DD
:100D0C00FFF7CFFD29E793FAA3F24AB1B2FA82F2C8
:100D1C00013202F01F02092A8CBF00220122D2E705
:100D2C002022F5E793FAA3F131B1B1FA81F1013147
:100D3C00890601F0F841CEE72021F8E793FAA3F2F7
:100D4C004AB1B2FA82F2013202F01F024FF0010CEA
:100D5C000CFA02F2C9E72022F5E793FAA3F343B1A8
:100D6C00B3FA83F3013303F01F0303EB43031B05B7
:100D7C00C4E72023F6E7E6B9990E0131890601F0A4
:100D8C00F84116BB4FEA936C0CF1010C0CF01F0CE4
:100D9C00012202FA0CF21143B6BB9B0E013303F095
:100DAC001F0303EB43031E3B1B0543F00073194366
:100DBC00A5E793FAA3F131B1B1FA81F101318906BA
:100DCC0001F0F841DDE72021F8E793FAA3F24AB1EC
:100DDC00B2FA82F2013202F01F024FF0010C0CFA4F
:100DEC0002F2D8E72022F5E7FFFF070000007F4062
:100DFC000000088000030450000052C7000084CBA0
:100E0C000100008000F0FF0393FAA3F35BB1B3FA87
:100E1C0083F3013303F01F0303EB43031E3B1B055A
:100E2C0043F00073C3E72023F3E712F4000F7FF4C1
:100E3C00A1AE2268274B9A4201D000204CE640F428
:100E4C00000325498A6822F0E07213438B60234B20
:100E5C001B689B09224AA2FB03239B09013303EB6A
:100E6C0043039B00019302E0019B013B0193019B17
:100E7C00002BF9D100202FE612F0807F7FF47EAE9C
:100E8C002268144B9A4201D0002025E640F0807372
:100E9C0011498A6822F0E07213438B6000201BE634
:100EAC0012F4800F11D122680A4B9A4201D0002013
:100EBC0012E640F4800308498A6822F0E07213437A
:100ECC008B60002008E6002006E6002004E60220E5
:100EDC0005E600BF00000450000304500000002091
:100EEC00632D3E05002800F0A18038B5044690F82B
:100EFC002030D3B12268136843F001031360FFF76D
:100F0C009FFC054623685A6812F0010F10D1FFF7B9
:100F1C0097FC401B0A28F5D9636A43F400336362DB
:100F2C00052384F82030012038BDFFF73BFBE1E7B7
:100F3C001A6822F002021A60FFF782FC0546236849
:100F4C005A6812F0020F0DD0FFF77AFC401B0A28EA
:100F5C00F5D9636A43F400336362052384F82030C7
:100F6C000120E1E7227E012A3DD01A6822F080029E
:100F7C001A60637E012B3BD02268136823F0400378
:100F8C001360A37E012B39D02268136823F0200351
:100F9C001360E37E012B37D02268136843F01003F3
:100FAC001360237F012B35D02268136823F00803CC
:100FBC001360637F012B33D02268136823F0040382
:100FCC001360A368E26813432269134362691343F5
:100FDC006268013A21681343CB61002060620123EF
:100FEC0084F82030A0E71A6842F080021A60C0E74B
:100FFC002268136843F040031360C2E72268136849
:10100C0043F020031360C4E72268136823F0100335
:10101C001360C6E72268136843F008031360C8E73F
:10102C002268136843F004031360CAE70120704779
:10103C0070B5044690F82050EDB2012D06D0436AED
:10104C0043F4002343620125284670BD022380F837
:10105C0020300268136823F001031360FFF7F0FBE4
:10106C00064623685B6813F0010F0CD0FFF7E8FB12
:10107C00831B0A2BF5D9636A43F40033636205239F
:10108C0084F82030E0E700256562DDE730B590F8A4
:10109C0020C00468A4680CF1FF3C5FFA8CFCBCF126
:1010AC00010F62D814F0E05F59D0C4F3016C012435
:1010BC0004FA0CF41C608B68002B3DD10D68CB68D6
:1010CC00046843EA45550CF118031B01E55003680D
:1010DC000C690CF1180E03EB0E135C600B7D012BED
:1010EC0035D0D17993791B0443EA0163517943EAF2
:1010FC00012314790168234301EB0C11C1F88C31E5
:10110C00D17893781B0443EA0163517843EA0123B5
:10111C00117802680B4302EB0C12C2F8883102689A
:10112C000CF1180C4FEA0C1C52F80C3043F0010374
:10113C0042F80C3000201DE04C6843EAC403CC6834
:10114C0023430CF11804240105682B51BFE70368F5
:10115C0003EB0E13596841F480715960C1E7436A7F
:10116C0043F400134362012004E0436A43F48023F8
:10117C004362012030BD704770477047704770471D
:10118C00704770477047704770477047704770479B
:10119C002DE9F84F054603685C69D3F804809F6815
:1011AC00D3F80CB0D3F810A0D3F8189014F00106B3
:1011BC003BD017F0010616D001229A6017F0020FEF
:1011CC0008D117F0040F0CD117F0080606D04FF415
:1011DC00805608E0FFF7CFFF002604E0FFF7CEFFB4
:1011EC0001E04FF4006617F4807F0DD02B684FF4AC
:1011FC0080729A6017F4007F40F0868017F4806F3D
:10120C0000F0868046F4005617F4803F0DD02B6812
:10121C004FF480329A6017F4003F40F0838017F44B
:10122C00802F00F0838046F4004614F0080F07D09E
:10123C001BF0100F04D046F400762B681022DA60F5
:10124C0014F0040F02D01BF0080F79D114F0020F28
:10125C0004D02B68DB6813F0030F78D114F0400F27
:10126C0007D01AF0100F04D046F480662B681022B9
:10127C001A6114F0200F02D01AF0080F6BD114F081
:10128C00100F04D02B681B6913F0030F6AD114F4F0
:10129C00003F02D018F0100F68D114F4803F02D038
:1012AC0018F0080F69D114F4004F7AD018F0040F1D
:1012BC0074D014F4807F04D019F0010F01D046F0E3
:1012CC00010614F4007F04D019F0020F01D046F08F
:1012DC00020614F4806F04D019F0040F01D046F00C
:1012EC00040614F4006F59D019F0700956D0B9F1F6
:1012FC00400F65D058D8B9F1200F5ED0B9F1300F3E
:10130C0042D146F0200644E02846FFF735FF7BE744
:10131C0017F4006F02D046F4804675E72846FFF7B5
:10132C002EFF71E72846FFF728FF7EE717F4002F02
:10133C0002D046F4803678E72846FFF721FF74E7A1
:10134C002B680822DA602846FFF71CFF7EE7284648
:10135C00FFF717FF82E72B6808221A612846FFF770
:10136C0013FF8CE72846FFF70EFF90E72B6810223F
:10137C005A602846FFF709FF8FE72B6808225A604E
:10138C002846FFF703FF8EE7B9F1100F01D146F0A5
:10139C0008062A68936923F0700393612B68042272
:1013AC005A609EB9BDE8F88FB9F1500F0BD0B9F166
:1013BC00600FEED146F48076EBE746F01006E8E7D6
:1013CC0046F04006E5E746F08006E2E76B6A3343F9
:1013DC006B622846FFF7DBFEE4E70000002807DB22
:1013EC0000F01F02400901239340024A42F82030CA
:1013FC00704700BF00E100E0002808DB0901C9B21A
:10140C0000F1604000F5614080F80013704700F077
:10141C000F000901C9B2014B1954704714ED00E0DB
:10142C0000B500F00700C0F1070CBCF1040F28BF99
:10143C004FF0040C031D062B0FD9C31E4FF0FF3EBB
:10144C000EFA0CF021EA000199400EFA03FE22EA92
:10145C000E0241EA02005DF804FB0023EEE70000F7
:10146C00074AD36823F4E0631B041B0C000200F44E
:10147C00E060034343F0BF6343F40033D360704731
:10148C0000ED00E010B50446054BD868C0F302200F
:10149C00FFF7C6FF01462046FFF7AEFF10BD00BFA9
:1014AC0000ED00E008B5FFF799FF08BD0138B0F179
:1014BC00807F0BD24FF0E0235861054AF02182F86F
:1014CC0023100020986107221A6170470120704791
:1014DC0000ED00E070B582B0002365E085685E0029
:1014EC000324B44025EA0405CC68B4402C43846042
:1014FC00456825EA0C054C68C4F300149C402C4349
:10150C00446062E0DD08083550F8254003F0070C14
:10151C004FEA8C0C4FF00F0E0EFA0CFE24EA0E0E56
:10152C000C6904FA0CF444EA0E0440F8254063E01C
:10153C00022400E0002404FA0EF42C430CF1020CFB
:10154C004E4D45F82C404E4CA568D44325EA020676
:10155C00D1F804C01CF4801F01D042EA0506484DA6
:10156C00AE60ED6804EA0506D1F804C01CF4001F57
:10157C0001D042EA0506424DEE606D6804EA0506AC
:10158C00D1F804C01CF4003F01D042EA05063C4DE2
:10159C006E602D682C404E6816F4803F01D042EAF4
:1015AC000504374A146001330A6832FA03F462D036
:1015BC004FF0010C0CFA03FC1CEA0202F3D04C684D
:1015CC0004F00304013C012C88D94C6804F003049A
:1015DC00032C0CD0C4685D004FF0030C0CFA05FC16
:1015EC0024EA0C0C8C68AC4044EA0C04C4604C68D3
:1015FC0004F00304022C85D004684FEA430E4FF02C
:10160C00030C0CFA0EFC24EA0C0C4C6804F00304DA
:10161C0004FA0EF444EA0C0404604C6814F4403FE1
:10162C00C1D0184C256E45F001052566246E04F0DA
:10163C0001040194019C4FEA930C0CF102050F4C30
:10164C0054F8255003F0030E4FEA8E0E0F2404FAC3
:10165C000EF425EA0405B0F1904F3FF46BAF0A4C41
:10166C00A04206D004F58064A0423FF461AF072489
:10167C0061E701245FE702B070BD00BF00000140CC
:10168C000004014000100240000400480AB18161CE
:10169C00704781627047436901EA030221EA030142
:1016AC0041EA024181617047024B186800F4C06046
:1016BC00704700BF00700040B0F5007F0FD01F4B8B
:1016CC001B6803F4C063B3F5806F34D01B4A1368F6
:1016DC0023F4C06343F48063136000207047174BFE
:1016EC001B6803F4C063B3F5007F20D0134A136862
:1016FC0023F4C06343F400731360114B1B68322254
:10170C0002FB03F30F4AA2FB03239B0C013300E003
:10171C00013B0A4A526912F4806F01D0002BF7D1B9
:10172C00064B5B6913F4806F03D1002070470020D7
:10173C007047032070470020704700BF00700040C6
:10174C000000002083DE1B4330B583B00446204BE1
:10175C009B6D13F0805F0BD0FFF7A6FFB0F5007FF9
:10176C0017D0802C1FD82DD0702C2DD000211BE031
:10177C00174DAB6D43F08053AB65AB6D03F08053ED
:10178C000193019BFFF790FFAB6D23F08053AB658A
:10179C00E4E7802C03D9A02C03D9022104E000211A
:1017AC0002E0012100E003210A4A136823F0070339
:1017BC000B431360136803F007038B4206D1002020
:1017CC0003B030BD0221EFE70121EDE70120F7E77F
:1017DC000010024000200240284A9368D26802F0B0
:1017EC00030213F00C030AD00C2B06D0042B1FD0D1
:1017FC00082B20D00020024610E0012AF6D11F4A07
:10180C00126812F0080F0CD11C4AD2F89420C2F3C3
:10181C0003221B4951F8222043B100200C2B0DD080
:10182C007047164A1268C2F30312F2E71046F5E746
:10183C0014480022F2E714480022EFE70F4BDB6854
:10184C0003F00303022B16D0032B00D10E4A0B49D5
:10185C00CB68C3F302130133C868C0F3062002FB44
:10186C0000F0B0FBF3F0CB68C3F3416301335B00D2
:10187C00B0FBF3F0D4E7034AE9E700BF00100240E5
:10188C00D83100080024F40000366E01002800F066
:10189C001C83F0B583B00446964B9D6805F00C058F
:1018AC00DE6806F00306036813F0100F5AD0E5B19A
:1018BC000C2D18D0A369002B00F0BB808D4A136847
:1018CC0043F001031360FEF7BBFF0746894B1B680F
:1018DC0013F0020F40F09A80FEF7B2FFC01B0228F3
:1018EC00F4D90320FCE2012EE4D1824B1B6813F0E7
:1018FC00020F03D0A369002B00F0E982206A7D4B14
:10190C001B6813F0080F5BD07A4B1B6803F0F003D5
:10191C0098425CD8774B1A6842F008021A601A6831
:10192C0022F0F002216A0A431A605A6822F47F42BC
:10193C00E16942EA01225A60002D60D0FFF74CFFAA
:10194C006C4B9B68C3F303136B4AD35C03F01F030C
:10195C00D8406A4B18606A4B1868FEF72DFF0028B8
:10196C0040F0BE82236813F0010F00F08180082D37
:10197C0075D00C2D71D06368B3F5803F00F0978063
:10198C00B3F5A02F00F099805A4B1A6822F48032DC
:10199C001A601A6822F480221A606368002B00F027
:1019AC009980FEF74DFF0746524B1B6813F4003F1E
:1019BC005ED1FEF745FFC01B6428F5D903208FE2EA
:1019CC004C4BD3F894301B0903F0F003A0E7FFF75E
:1019DC00BBFE002840F07D82464B1A6842F008029C
:1019EC001A601A6822F0F002216A0A431A605A68D7
:1019FC0022F47F42E16942EA01225A609EE7206AA2
:101A0C00FFF7A2FE002899D0012069E2394B1A6831
:101A1C0042F008021A601A6822F0F002216A0A43A6
:101A2C001A605A6822F47F42E16942EA01225A6044
:101A3C0098E7304A136823F001031360FEF700FFA8
:101A4C0007462C4B1B6813F0020F8BD0FEF7F8FEE9
:101A5C00C01B0228F5D9032042E2032E8BD1254B63
:101A6C001B6813F4003F03D06368002B00F0338233
:101A7C00236813F0020F58D0042D45D00C2D41D003
:101A8C00E368002B77D01B4A136843F48073136010
:101A9C00FEF7D6FE0646174B1B6813F4806F61D118
:101AAC00FEF7CEFE801B0228F5D9032018E2114A5E
:101ABC00136843F4803313606FE703F18043A3F59D
:101ACC003C331A6842F480221A601A6842F480325D
:101ADC001A6062E7FEF7B4FE0746064B1B6813F468
:101AEC00003FC5D0FEF7ACFEC01B6428F5D903201F
:101AFC00F6E100BF00100240103200080000002088
:101B0C0008000020022EBBD1A44B1B6813F4806F7D
:101B1C0003D0E368002B00F0E081A04A536823F067
:101B2C00F853216943EA01635360236813F0080FEB
:101B3C004CD063699BB3994AD2F8943043F00103BB
:101B4C00C2F89430FEF77CFE0646944BD3F89430E2
:101B5C0013F0020F3AD1FEF773FE801B0228F4D962
:101B6C000320BDE18D4A536823F0F853216943EA01
:101B7C0001635360D9E7894A136823F480731360B7
:101B8C00FEF75EFE0646854B1B6813F4806FCCD0C7
:101B9C00FEF756FE801B0228F5D90320A0E17F4AF0
:101BAC00D2F8943023F00103C2F89430FEF748FECB
:101BBC0006467A4BD3F8943013F0020F06D0FEF79A
:101BCC003FFE801B0228F4D9032089E1236813F01F
:101BDC00040F7AD0714B9B6D13F0805F36D16F4B35
:101BEC009A6D42F080529A659B6D03F0805301937D
:101BFC00019B01266A4B1B6813F4807F28D0A368D5
:101C0C00012B39D0052B3FD0644BD3F8902022F018
:101C1C000102C3F89020D3F8902022F00402C3F8FC
:101C2C009020A368002B3DD0FEF70AFE07465B4BC5
:101C3C00D3F8903013F0020F46D1FEF701FEC01B13
:101C4C0041F288339842F2D9032049E10026D1E7CA
:101C5C00534A136843F480731360FEF7F1FD074693
:101C6C004F4B1B6813F4807FC9D1FEF7E9FDC01BF5
:101C7C000228F5D9032033E1484AD2F8903043F0DA
:101C8C000103C2F89030CCE7444BD3F8902042F0DB
:101C9C000402C3F89020D3F8902042F00102C3F85C
:101CAC009020BEE7FEF7CCFD07463C4BD3F89030B6
:101CBC0013F0020F08D0FEF7C3FDC01B41F28833AE
:101CCC009842F2D903200BE1E6B9236813F0200FF8
:101CDC0035D0636AE3B1314AD2F8983043F001034E
:101CEC00C2F89830FEF7ACFD06462C4BD3F8983072
:101CFC0013F0020F23D1FEF7A3FD801B0228F4D9A9
:101D0C000320EDE0254A936D23F080539365DCE7C7
:101D1C00224AD2F8983023F00103C2F89830FEF72B
:101D2C008FFD06461D4BD3F8983013F0020F06D0EA
:101D3C00FEF786FD801B0228F4D90320D0E0A36AAD
:101D4C00002B00F0CC80022B17D00C2D00F0CC8097
:101D5C00124A136823F080731360FEF771FD04467A
:101D6C000E4B1B6813F0007F00F0A880FEF768FD97
:101D7C00001B0228F4D90320B2E0084BDB6803F007
:101D8C000301E26A91420DD00C2D00F0AB80034BA5
:101D9C001B6813F0806F2FD00120A1E000100240CF
:101DAC000070004003F07002216B0139B2EB011F8F
:101DBC00EAD103F4FE42616BB2EB012FE4D103F0E4
:101DCC007842A16BB2EBC16FDED103F4C001E26BC0
:101DDC005208013AB1EB425FD6D103F0C063226CDA
:101DEC005208013AB3EB426FCED1404B1B6813F053
:101DFC00007F49D0002073E03C4A136823F08073C5
:101E0C001360FEF71DFD0546384B1B6813F0007F71
:101E1C0006D0FEF715FD401B0228F5D903205FE024
:101E2C00324AD36832491940E36A206B013843EADD
:101E3C000013606B43EA0023E06B4008013843EA6F
:101E4C004053206C4008013843EA4063A06B43EADE
:101E5C00C0631943D160136843F080731360D36877
:101E6C0043F08073D360FEF7EBFC04461F4B1B68FA
:101E7C0013F0007F06D1FEF7E3FC001B0228F5D916
:101E8C0003202DE000202BE0184B1A6842F08072E2
:101E9C001A60DA6842F08072DA60FEF7D1FC044610
:101EAC00124B1B6813F0007F06D1FEF7C9FC031B15
:101EBC00022BF5D9032013E0002011E00B4AD16866
:101ECC000C4B0B40D36000200AE00120704701202E
:101EDC0006E0012004E0012002E0012000E00020E7
:101EEC0003B0F0BD0120FBE70120F9E70010024030
:101EFC008C809D01FCFFEEFE002800F0AF8070B5D9
:101F0C000D460446594B1B6803F007038B420BD25A
:101F1C00564A136823F007030B431360136803F04E
:101F2C0007038B4240F09C80236813F0020F0CD007
:101F3C00A2684F4B9B6803F0F0039A4205D94C49B9
:101F4C008B6823F0F0031A438A60236813F0010FA7
:101F5C0039D06368032B09D0022B26D063BB444ACB
:101F6C00126812F0020F06D1012076E0404A126886
:101F7C0012F0007F76D03E498A6822F003021343A8
:101F8C008B60FEF75DFC0646394B9B6803F00C0337
:101F9C006268B3EB820F16D0FEF752FC801B41F245
:101FAC0088339842F0D9032057E0314A126812F472
:101FBC00003FE0D1012050E02D4A126812F4806FEE
:101FCC00D9D1012049E0236813F0020F0CD0A2688C
:101FDC00274B9B6803F0F0039A4205D224498B6887
:101FEC0023F0F0031A438A60204B1B6803F00703AD
:101FFC00AB420AD91D4A136823F007032B43136025
:10200C00136803F00703AB422ED1236813F0040FBF
:10201C0006D0174A936823F4E063E1680B4393609E
:10202C00236813F0080F07D0114A936823F4605308
:10203C00216943EAC1039360FFF7CEFB0C4B9B680D
:10204C00C3F303130B4AD35C03F01F03D8400A4BB2
:10205C0018600A4B1868FEF7AFFB70BD0120704783
:10206C000120FAE70120F8E70120F6E70020024002
:10207C000010024010320008000000200800002070
:10208C00014B1868704700BF0000002008B5FFF72F
:10209C00F7FF054B9B68C3F30223044AD35C03F0A0
:1020AC001F03D84008BD00BF0010024008320008D2
:1020BC0008B5FFF7E5FF054B9B68C3F3C223044A41
:1020CC00D35C03F01F03D84008BD00BF00100240D2
:1020DC0008320008F8B504460D46584BDB6813F07F
:1020EC00030F17D0554BDB6803F0030302689342D0
:1020FC0001D0012616E0002A00F09E804F4BDB68D1
:10210C00C3F3021301334268934201D0012609E064
:10211C0000261BE00368022B57D0032B5CD0012B4D
:10212C0002D001263046F8BD444A126812F0020F64
:10213C005ED04248C26822F073026168013943EAFA
:10214C0001131343C3600026002EEBD13B4A1368E6
:10215C0023F080631360FEF773FB0746374B1B6855
:10216C0013F0006F05D0FEF76BFBC31B022BF5D9E8
:10217C000326002ED6D1002D3CD130490B6923F01B
:10218C00784323F4FE43A068E268D20642EA0022B8
:10219C0013430B61294A136843F080631360FEF705
:1021AC004FFB0546254B1B6813F0006F05D1FEF75E
:1021BC0047FB401B0228F5D90326002EB2D11F4A3B
:1021CC001369A1690B431361ACE71C4A126812F442
:1021DC00806FAED10126A5E7184A126812F4003FB1
:1021EC00A7D1164A126812F4802FA2D1012699E7C2
:1021FC000126A9E7012D0FD01048026922F0C06218
:10220C0022F4FE42A16863695B08013B5B0643EA6A
:10221C0001231A430261BDE70848026922F4C00297
:10222C0022F4FE42A16823695B08013B5B0543EA8B
:10223C0001231A430261ADE7012673E70010024047
:10224C002DE9F04182B00446036813F4006F25D0E9
:10225C00C36BB3F5000F06D0B3F5400F12D04BB1E2
:10226C00012637461CE0AE4AD36843F48033D36072
:10227C00002708E000210430FFF72CFF074610B1BF
:10228C0006460DE00027A64AD2F8883023F4400316
:10229C00E16B0B43C2F88830002601E0002637467C
:1022AC00236813F4003F6BD09D4B9B6D13F0805F44
:1022BC004CD19B4B9A6D42F080529A659B6D03F00A
:1022CC0080530193019B4FF00108964A136843F425
:1022DC0080731360FEF7B4FA0546924B1B6813F437
:1022EC00807F05D1FEF7ACFA401B0228F5D90327F5
:1022FC00002F40D18A4BD3F8903013F4407315D093
:10230C00226D9A4212D0864AD2F8903023F4407350
:10231C00D2F8901041F48031C2F89010D2F890109D
:10232C0021F48031C2F89010C2F8903013F0010FF4
:10233C000FD1002F40F0C980794AD2F8903023F4A5
:10234C004073216D0B43C2F8903015E04FF000083C
:10235C00BBE7FEF775FA0546714BD3F8903013F0D6
:10236C00020FE6D1FEF76CFA401B41F2883398421B
:10237C00F2D90327DDE73E46B8F1000F40F0A78005
:10238C00236813F0010F08D0654AD2F8883023F087
:10239C000303216A0B43C2F88830236813F0020F41
:1023AC0008D05F4AD2F8883023F00C03616A0B43E3
:1023BC00C2F88830236813F0200F08D0584AD2F89E
:1023CC00883023F44063A16A0B43C2F88830236839
:1023DC0013F4007F08D0524AD2F8883023F44023FB
:1023EC00616B0B43C2F88830236813F4806F08D0FC
:1023FC004B4AD2F8883023F44013A16B0B43C2F83C
:10240C008830236813F0400F08D0454AD2F8883042
:10241C0023F44053E16A0B43C2F88830236813F469
:10242C00807F08D03E4AD2F8883023F44033216BA9
:10243C000B43C2F88830236813F4005F0FD0384A7E
:10244C00D2F8883023F04063216C0B43C2F88830FB
:10245C00236CB3F1006F40D0B3F1806F42D023688E
:10246C0013F4802F0FD02E4AD2F8883023F040631B
:10247C00616C0B43C2F88830636CB3F1006F39D0D8
:10248C00B3F1806F3BD0236813F4804F0CD0244AF7
:10249C00D2F8883023F04053A16C0B43C2F888303B
:1024AC00A36CB3F1805F32D0236813F4004F08D0D3
:1024BC001B4AD2F8883023F08043E16C0B43C2F8FE
:1024CC008830304602B0BDE8F0813E4654E7144AED
:1024DC00936D23F08053936552E7D36843F48013D4
:1024EC00D360BCE70121201DFFF7F4FD0028B6D016
:1024FC000646B4E7D36843F48013D360C3E70121E5
:10250C00201DFFF7E7FD0028BDD00646BBE70221E2
:10251C00201DFFF7DFFD0028C6D00646C4E700BF2C
:10252C00001002400070004090F83D30DBB2012BEF
:10253C0026D1022380F83D300268D36843F00103B2
:10254C00D3600368114A93420CD0B3F1804F09D089
:10255C0002F5A052934205D01A6842F001021A60AB
:10256C000020704799680A4A0A40062A0AD0B2F538
:10257C00803F09D01A6842F001021A6000207047AF
:10258C00012070470020704700207047002C01404C
:10259C0007000100704770477047704710B504463C
:1025AC0003681A6912F0020F11D0DA6812F0020FE8
:1025BC000DD06FF002021A610123037703689B6947
:1025CC0013F0030F79D0FFF7E6FF0023237723687E
:1025DC001A6912F0040F12D0DA6812F0040F0ED040
:1025EC006FF004021A610223237723689B6913F4AA
:1025FC00407F68D02046FFF7CEFF00232377236867
:10260C001A6912F0080F12D0DA6812F0080F0ED007
:10261C006FF008021A61042323772368DB6913F037
:10262C00030F57D02046FFF7B6FF0023237723680C
:10263C001A6912F0100F12D0DA6812F0100F0ED0C7
:10264C006FF010021A61082323772368DB6913F4F7
:10265C00407F46D02046FFF79EFF00232377236858
:10266C001A6912F0010F03D0DA6812F0010F3FD192
:10267C0023681A6912F0800F03D0DA6812F0800F09
:10268C003DD123681A6912F4807F03D0DA6812F006
:10269C00800F3BD123681A6912F0400F03D0DA681F
:1026AC0012F0400F39D123681A6912F0200F03D0B1
:1026BC00DA6812F0200F37D110BDFFF76BFF204600
:1026CC00FFF76AFF81E72046FFF764FF2046FFF71C
:1026DC0063FF92E72046FFF75DFF2046FFF75CFFA4
:1026EC00A3E72046FFF756FF2046FFF755FFB4E758
:1026FC006FF001021A612046FDF7B6FDB8E76FF0E6
:10270C0080021A61204600F0B8F8BAE76FF48072C4
:10271C001A61204600F0B2F8BCE76FF040021A6173
:10272C002046FFF73AFFBEE76FF020021A61204601
:10273C0000F0A2F8C0E7000003681A4A904202D0E9
:10274C00B0F1804F03D123F070034A681343154A4C
:10275C0090420AD0B0F1804F07D002F5A0529042BF
:10276C0003D002F58062904203D123F44073CA680F
:10277C00134323F080034A69134303608B68C362DD
:10278C000B688362074B984207D003F5A05398421D
:10279C0003D003F58063984201D10B6903630123D5
:1027AC0043617047002C014060B310B5044690F8AB
:1027BC003D3013B3022384F83D30214651F8040B0D
:1027CC00FFF7BAFF012384F8483084F83E3084F8D0
:1027DC003F3084F8403084F8413084F8423084F83B
:1027EC00433084F8443084F8453084F8463084F81B
:1027FC00473084F83D30002010BD80F83C30FDF7A8
:10280C0015FFD7E70120704790F83C20012A2FD004
:10281C0030B40346012280F83C20022280F83D208F
:10282C00006842688468134DA8421CD022F07002E4
:10283C000D682A4342601A680E48824206D0B2F1F3
:10284C00804F03D000F5A050824204D124F08004C4
:10285C00896821439160012283F83D20002083F890
:10286C003C0030BC704722F470024D682A43DDE70F
:10287C0002207047002C01407047704770470000E1
:10288C0010B5044601688368026913434269134317
:10289C00C269134308688C4A02401A430A602268D2
:1028AC00536823F44053E1680B435360A1692268D9
:1028BC00864B9A4201D0236A1943936823F4306300
:1028CC000B4393602368824A93421CD0814A934203
:1028DC002DD07E4A934243D010227C498B4260D04B
:1028EC00E069B0F5004F00F08C80082A00F2E5801A
:1028FC00DFE812F0B400CA00B200E300CD00E30040
:10290C00E300E300D00002F55842D2F8882002F030
:10291C000302032A09D8DFE802F002043806012278
:10292C00DBE70422D9E70822D7E71022D5E702F526
:10293C00E632D2F8882002F00C020C2A0ED8DFE81E
:10294C0002F0070D0D0D090D0D0D260D0D0D0B00D3
:10295C000022C2E70422C0E70822BEE71022BCE72F
:10296C0002F5C832D2F8882002F44062B2F5006F4A
:10297C000FD005D87AB1B2F5806F0ED10422ACE736
:10298C00B2F5406F0BD10822A7E70222A5E702227D
:10299C00A3E70222A1E700229FE710229DE7102265
:1029AC009BE7082A79D8DFE802F008782A7827789C
:1029BC00787805004FF4004003E0FFF767FB002830
:1029CC006DD0626802EB420383426AD8B0EB023FDF
:1029DC0069D8010E00025308C0184FF0000341F1F2
:1029EC000001FDF7CDFBA0F540723B4B9A425CD841
:1029FC002368D860002043E0FEF7EEFEDFE737489F
:102A0C00DFE7082A53D8DFE802F0072105522452E9
:102A1C0052520B00314803E0FFF738FB002848D036
:102A2C006268530803EB4003B3FBF2F3A3F110010C
:102A3C004FF6EF7291423ED89AB222F00F02C3F3D6
:102A4C00420313432268D360002019E0FFF730FBE8
:102A5C00E4E7FEF7C1FEE1E7204802E0FFF716FBD2
:102A6C0068B3636800EB5300B0FBF3F0A0F1100205
:102A7C004FF6EF739A4224D8236880B2D8600020B6
:102A8C0000236366A36610BDFFF712FBE8E7FEF7B1
:102A9C00A3FEE5E74FF40040E3E70120F0E7002058
:102AAC00EEE70120ECE70120EAE70120E8E701204E
:102ABC00E6E70020E4E70120E2E70120E0E7002060
:102ACC00DEE70120DCE700BFF369FFEF0080004088
:102ADC000038014000440040FFFC0F000024F400CB
:102AEC00436A13F0010F06D00268536823F40033D5
:102AFC00816A0B435360436A13F0020F06D00268DD
:102B0C00536823F48033C16A0B435360436A13F058
:102B1C00040F06D00268536823F48023016B0B4327
:102B2C005360436A13F0080F06D00268536823F40D
:102B3C000043416B0B435360436A13F0100F06D0F4
:102B4C000268936823F48053816B0B439360436A50
:102B5C0013F0200F06D00268936823F40053C16B66
:102B6C000B439360436A13F0400F0AD0026853681A
:102B7C0023F48013016C0B435360036CB3F5801F7B
:102B8C000BD0436A13F0800F06D00268536823F40D
:102B9C000023816C0B43536070470268536823F425
:102BAC00C003416C0B435360EBE72DE9F84305463A
:102BBC000F4616469946DDF820802B68DC6937EA0B
:102BCC0004040CBF01240024B44253D1B8F1FF3FDC
:102BDC00F3D0FDF735FEA0EB090040452DD8B8F138
:102BEC00000F2AD02B681A6812F0040FE5D0DA69AE
:102BFC0012F4006FE1D04FF400621A622A6852E8B6
:102C0C00003F23F4D07342E800310029F6D12A6842
:102C1C0002F1080353E8003F23F00103083242E8B5
:102C2C0000310029F3D12023AB67EB67C5F8803066
:102C3C00002385F8743003201DE02A6852E8003F19
:102C4C0023F4D07342E800310029F6D12A6802F14E
:102C5C00080353E8003F23F00103083242E8003137
:102C6C000029F3D12023AB67EB67002385F8743080
:102C7C00032000E00020BDE8F88330B583B00446A3
:102C8C000023C0F88030FDF7DBFD05462268126892
:102C9C0012F0080F0DD123681B6813F0040F16D126
:102CAC002023A367E3670020206684F8740003B038
:102CBC0030BD6FF07E430093034600224FF40011A9
:102CCC002046FFF772FF0028E5D00320EFE76FF0F6
:102CDC007E4300932B4600224FF480012046FFF7E1
:102CEC0064FF0028DCD00320E1E768B310B504468C
:102CFC00836F03B32423A3672268136823F00103B3
:102D0C0013602046FFF7BCFD012813D0636ABBB9E2
:102D1C002268536823F4904353602268936823F02D
:102D2C002A0393602268136843F001031360204662
:102D3C00FFF7A3FF10BD80F87430FDF797FCD9E7BF
:102D4C002046FFF7CDFEE3E7012070472DE9F04761
:102D5C0086468C460846089E154674461946002B36
:102D6C0040F0C2808542B2FA82F245D94AB1C2F132
:102D7C00200300FA02FC2EFA03F3954043EA0C0CF4
:102D8C0094404FEA154EA8B2BCFBFEF8230C0EFB88
:102D9C0018CC08FB00F943EA0C43994528D9EB18E9
:102DAC0008F1FF3704D2994502D9A8F102072B4448
:102DBC00A3EB0903A4B2B3FBFEFC0EFB1C330CFB10
:102DCC0000F044EA0344A04214D92C190CF1FF334F
:102DDC0004D2A04202D9ACF102032C44241A43EAD7
:102DEC0007401EB1D440002334607360BDE8F08707
:102DFC004746DDE76346F1E792BB431B01214FEAEF
:102E0C00154EAFB2B3FBFEFC200C0EFB1C330CFBBF
:102E1C0007F840EA0343984562D9EB180CF1FF30F0
:102E2C0004D2984502D9ACF102002B44A3EB080361
:102E3C00A4B2B3FBFEFC0EFB1C330CFB07F744EAFD
:102E4C000344A7424ED92C190CF1FF3304D2A742EC
:102E5C0002D9ACF102032C44E41B43EA0040C0E766
:102E6C00C2F1200320FA03F1954090402EFA03F3AF
:102E7C0003434FEA154EAFB2B1FBFEFC0EFB1C1028
:102E8C00190C0CFB07F841EA0041884504FA02F4DE
:102E9C0022D969180CF1FF3004D2884502D9ACF163
:102EAC0002002944A1EB08019BB2B1FBFEFC0EFB16
:102EBC001C110CFB07F743EA01439F420ED9EB1898
:102ECC000CF1FF3104D29F4202D9ACF102012B4428
:102EDC00DB1B41EA004192E76046E3E76146F7E716
:102EEC006046A3E76346B7E7834206D916B90021CB
:102EFC0008467BE7C6E900E0F9E7B3FA83F78FB938
:102F0C00834201D3724508D8BEEB020460EB030385
:102F1C0001209C461EB9002168E73846FAE7C6E94D
:102F2C00004CF8E7C7F1200CBB4022FA0CF41C4310
:102F3C002EFA0CF120FA0CF3B84001434FEA144975
:102F4C000EFA07F5B3FBF9F81FFA84FE09FB1830EB
:102F5C000B0C08FB0EFA43EA00439A4502FA07F2FF
:102F6C0040D9E31808F1FF3004D29A4502D9A8F1F0
:102F7C0002002344A3EB0A0389B2B3FBF9F809FB63
:102F8C00183308FB0EFE41EA03418E452CD961181B
:102F9C0008F1FF3304D28E4502D9A8F10203214473
:102FAC0043EA0040A0FB0298A1EB0E014145CE463E
:102FBC00434602D306D14D4504D2B9EB020E68EB61
:102FCC0004030138002EA6D0B5EB0E0261EB030111
:102FDC0001FA0CFC22FA07F34CEA0303F940C6E9A8
:102FEC00003198E74046C5E74346D9E70023014640
:102FFC001A46184600F08CB838B5084D084BED1A37
:10300C00AC1007D0043D1D44013C55F804399847D9
:10301C00002CF9D1BDE8384000F0D0B838320008A7
:10302C003432000870B50D4E0D4D761BB61006D01F
:10303C00002455F8043B01349847A642F9D1094EB7
:10304C00094D761B00F0B4F8B61006D0002455F8E4
:10305C00043B01349847A642F9D170BD2C320008CC
:10306C002C320008343200082C320008830730B5AB
:10307C0048D0541E002A3FD0CAB2034601E0013C9E
:10308C003AD303F8012B9D07F9D1032C2DD9CDB2DE
:10309C0045EA05250F2C45EA054536D9A4F1100261
:1030AC0022F00F0C03F1200EE6444FEA121C03F140
:1030BC00100242E9045542E9025510327245F8D12A
:1030CC000CF1010214F00C0F03EB021204F00F0CC4
:1030DC0013D0ACF1040323F003030433134442F87C
:1030EC00045B9342FBD10CF003042CB1C9B21C4419
:1030FC0003F8011B9C42FBD130BD64461346002CE7
:10310C00F4D1F9E703461446BFE71A46A446E0E7B4
:10311C002DE9F8431D4D0646286898460F46914602
:10312C0000F042F81A4B1B68D3F848411CB32868CE
:10313C0065681F2D24DC4EB96B1C0235636044F8A6
:10314C00257000F033F80020BDE8F88304EB85010E
:10315C000123C1F88890D4F88821AB401A43022E81
:10316C00C4F88821C1F80881E6D1D4F88C211A431F
:10317C00C4F88C21E0E703F5A674C3F84841D6E700
:10318C0000F014F84FF0FF30DEE700BF38040020E9
:10319C0020320008024B13B10248FFF727BF7047DB
:1031AC000000000005300008704700BF704700BFEA
:1031BC00F8B500BFF8BC08BC9E467047F8B500BF18
:0831CC00F8BC08BC9E467047E8
:1031D40061626300A0860100400D0300801A0600AE
:1031E40000350C0040420F0080841E0000093D00A1
:1031F40000127A000024F40000366E010048E80151
:10320400006CDC0200000000010203040000000066
:103214000000000001020304060708091000002052
:0832240034FBFF7F01000000F4
:08322C00A1310008E5010008D2
:04323400C1010008CC
:1032380000093D000100000010000000000000002F
:1032480000000000FC02002064030020CC030020E2
:103258000000000000000000000000000000000066
:103268000000000000000000000000000000000056
:103278000000000000000000000000000000000046
:103288000000000000000000000000000000000036
:103298000000000000000000000000000000000026
:1032A8000000000000000000000000000000000016
:1032B8000000000000000000000000000000000006
:1032C80000000000000000000000000000000000F6
:1032D80000000000000000000000000000000000E6
:1032E80000000000000000000100000000000000D5
:1032F8000E33CDAB34126DE6ECDE05000B0000009A
:1033080000000000000000000000000000000000B5
:1033180000000000000000000000000000000000A5
:103328000000000000000000000000000000000095
:103338000000000000000000000000000000000085
:0C3668000000000000000000B805002079
:040000050800077177
:00000001FF
