:020000040800F2
:100000000000012019170008E9150008EB15000889
:10001000ED150008EF150008F115000800000000BC
:10002000000000000000000000000000F3150008C0
:10003000F515000800000000F7150008F915000884
:100040006917000869170008691700086917000890
:100050006917000869170008691700086917000880
:100060006917000869170008691700086917000870
:100070006917000869170008691700086917000860
:100080006917000869170008691700086917000850
:1000900001160008391600086917000869170008DA
:1000A0006917000869170008691700086917000830
:1000B0006917000800000000000000006917000830
:1000C0006917000800000000000000006917000820
:1000D0000000000069170008691700080000000010
:1000E0006917000869170008000000000000000000
:1000F0000000000000000000000000000000000000
:100100000000000000000000000000006917000867
:1001100000000000000000004916000869170008F0
:1001200069170008691700086917000869170008AF
:100130006917000800000000000000000000000037
:10014000691700086917000869170008691700088F
:10015000691700086917000869170008691700087F
:1001600069170008691700086917000800000000F7
:10017000691700086917000800000000000000006F
:0C018000691700086917000869170008DB
:1001C00053B94AB9002908BF00281CBF4FF0FF31BE
:1001D0004FF0FF3000F00CB8ADF1080C6DE904CE23
:1001E00004F010F8DDF804E0DDE9022304B0704704
:1001F000704700BF00000000000000000000000089
:1002000090F800F06DE9024520F007016FF0000C56
:1002100010F0070491F820F040F049804FF00004FE
:100220006FF00700D1E9002391F840F000F10800D9
:1002300082FA4CF2A4FA8CF283FA4CF3A2FA8CF311
:100240004BBBD1E9022382FA4CF200F10800A4FA78
:100250008CF283FA4CF3A2FA8CF3E3B9D1E90423CC
:1002600082FA4CF200F10800A4FA8CF283FA4CF303
:10027000A2FA8CF37BB9D1E9062301F1200182FABD
:100280004CF200F10800A4FA8CF283FA4CF3A2FAC3
:100290008CF3002BC6D0002A04BF04301A4612BAD1
:1002A000B2FA82F2FDE8024500EBD2007047D1E9D4
:1002B000002304F00305C4F100004FEAC50514F063
:1002C000040F91F840F00CFA05F562EA05021CBF34
:1002D00063EA050362464FF00004A9E7000000004E
:1002E00001F0FF01102A2BDB10F0070F08D010F8E7
:1002F000013B013A8B422DD010F0070F42B3F6D1EB
:10030000F0B441EA012141EA014122F007047FF003
:1003100000070023F0E80256083C85EA010586EA5A
:10032000010685FA47F5A3FA87F586FA47F6A5FA96
:1003300087F68EB9EED1F0BC01F0FF0102F00702A2
:1003400032B110F8013B013A83EA010313B1F8D14D
:100350000020704701387047002D06BF354603382E
:10036000073815F0010F07D1013015F4807F02BF67
:10037000013015F4C03F0130F0BC0138704700BFB8
:10038000844641EA000313F003036DD1403A41D3A0
:1003900051F8043B40F8043B51F8043B40F8043B5F
:1003A00051F8043B40F8043B51F8043B40F8043B4F
:1003B00051F8043B40F8043B51F8043B40F8043B3F
:1003C00051F8043B40F8043B51F8043B40F8043B2F
:1003D00051F8043B40F8043B51F8043B40F8043B1F
:1003E00051F8043B40F8043B51F8043B40F8043B0F
:1003F00051F8043B40F8043B51F8043B40F8043BFF
:1004000051F8043B40F8043B51F8043B40F8043BEE
:10041000403ABDD2303211D351F8043B40F8043B8E
:1004200051F8043B40F8043B51F8043B40F8043BCE
:1004300051F8043B40F8043B103AEDD20C3205D39E
:1004400051F8043B40F8043B043AF9D2043208D096
:10045000D2071CBF11F8013B00F8013B01D30B8808
:1004600003806046704700BF082A13D38B078DD0E6
:1004700010F003038AD0C3F10403D21ADB071CBFB8
:1004800011F8013B00F8013B80D331F8023B20F822
:10049000023B7BE7043AD9D3013A11F8013B00F85B
:1004A000013BF9D20B7803704B7843708B788370E3
:1004B0006046704781F0004102E000BF83F00043D6
:1004C00030B54FEA41044FEA430594EA050F08BFEF
:1004D00090EA020F1FBF54EA000C55EA020C7FEAB3
:1004E000645C7FEA655C00F0E2804FEA5454D4EB30
:1004F0005555B8BF6D420CDD2C4480EA020281EAFA
:10050000030382EA000083EA010180EA020281EA31
:100510000303362D88BF30BD11F0004F4FEA013183
:100520004FF4801C4CEA113102D0404261EB410192
:1005300013F0004F4FEA03334CEA133302D0524218
:1005400063EB430394EA050F00F0A780A4F10104D4
:10055000D5F1200E0DDB02FA0EFC22FA05F280180E
:1005600041F1000103FA0EF2801843FA05F35941F4
:100570000EE0A5F120050EF1200E012A03FA0EFC73
:1005800028BF4CF0020C43FA05F3C01851EBE3719D
:1005900001F0004507D54FF0000EDCF1000C7EEBBA
:1005A00000006EEB0101B1F5801F1BD3B1F5001FF8
:1005B0000CD349085FEA30004FEA3C0C04F1010417
:1005C0004FEA445212F5800F80F09A80BCF1004F40
:1005D00008BF5FEA500C50F1000041EB045141EAC2
:1005E000050130BD5FEA4C0C404141EB0101013C8B
:1005F00028BFB1F5801FE9D291F0000F04BF01467A
:100600000020B1FA81F308BF2033A3F10B03B3F14B
:1006100020020CDA0C3208DD02F1140CC2F10C02DB
:1006200001FA0CF021FA02F10CE002F11402D8BF39
:10063000C2F1200C01FA02F120FA0CFCDCBF41EA05
:100640000C019040E41AA2BF01EB0451294330BDD4
:100650006FEA04041F3C1CDA0C340EDC04F11404B1
:10066000C4F1200220FA04F001FA02F340EA030088
:1006700021FA04F345EA030130BDC4F10C04C4F1CE
:10068000200220FA02F001FA04F340EA03002946AE
:1006900030BD21FA04F0294630BD94F0000F83F4F8
:1006A000801306BF81F480110134013D4EE77FEADB
:1006B000645C18BF7FEA655C29D094EA050F08BF27
:1006C00090EA020F05D054EA000C04BF1946104608
:1006D00030BD91EA030F1EBF0021002030BD5FEA4C
:1006E000545C05D14000494128BF41F0004130BD74
:1006F00014F580043CBF01F5801130BD01F00045C8
:1007000045F0FE4141F470014FF0000030BD7FEA3A
:10071000645C1ABF194610467FEA655C1CBF0B4635
:10072000024650EA013406BF52EA033591EA030F4C
:1007300041F4002130BD00BF90F0000F04BF002144
:10074000704730B54FF4806404F132044FF0000577
:100750004FF0000150E700BF90F0000F04BF0021F0
:10076000704730B54FF4806404F1320410F0004556
:1007700048BF40424FF000013EE700BF42004FEA51
:10078000E2014FEA31014FEA02701FBF12F07F43CE
:1007900093F07F4F81F06051704732F07F4208BF85
:1007A000704793F07F4F04BF41F40021704730B58C
:1007B0004FF4607401F0004521F000411CE700BFD8
:1007C00050EA010208BF704730B54FF000050AE05B
:1007D00050EA010208BF704730B511F0004502D55C
:1007E000404261EB41014FF4806404F132045FEA5E
:1007F000915C3FF4D8AE4FF003025FEADC0C18BF07
:1008000003325FEADC0C18BF033202EBDC02C2F1F8
:10081000200300FA03FC20FA02F001FA03FE40EA8A
:100820000E0021FA02F11444BDE600BF70B54FF08E
:10083000FF0C4CF4E06C1CEA11541DBF1CEA13556C
:1008400094EA0C0F95EA0C0F00F0DEF82C4481EAD4
:10085000030621EA4C5123EA4C5350EA013518BFF4
:1008600052EA033541F4801143F4801338D0A0FBE1
:1008700002CE4FF00005E1FB02E506F00042E0FB8E
:1008800003E54FF00006E1FB03569CF0000F18BF94
:100890004EF0010EA4F1FF04B6F5007F64F540743C
:1008A00004D25FEA4E0E6D4146EB060642EAC621CF
:1008B00041EA55514FEAC52040EA5E504FEACE2E3C
:1008C000B4F1FD0C88BFBCF5E06F1ED8BEF1004F3F
:1008D00008BF5FEA500E50F1000041EB045170BDBB
:1008E00006F0004646EA010140EA020081EA0301FF
:1008F000B4EB5C04C2BFD4EB0C0541EA045170BDFB
:1009000041F480114FF0000E013C00F3AB8014F174
:10091000360FDEBF002001F0004170BDC4F10004BD
:10092000203C35DA0C341BDC04F11404C4F120053E
:1009300000FA05F320FA04F001FA05F240EA020099
:1009400001F0004221F0004110EBD37021FA04F6CF
:1009500042EB06015EEA430E08BF20EAD37070BD89
:10096000C4F10C04C4F1200500FA04F320FA05F0E8
:1009700001FA04F240EA020001F0004110EBD370EA
:1009800041F100015EEA430E08BF20EAD37070BD5A
:10099000C4F1200500FA05F24EEA020E20FA04F333
:1009A00001FA05F243EA020321FA04F001F00041E2
:1009B00021FA04F220EA020000EBD3705EEA430E53
:1009C00008BF20EAD37070BD94F0000F0FD101F082
:1009D0000046400041EB010111F4801F08BF013CBB
:1009E000F7D041EA060195F0000F18BF704703F0F9
:1009F0000046520043EB030313F4801F08BF013D80
:100A0000F7D043EA0603704794EA0C0F0CEA13553B
:100A100018BF95EA0C0F0CD050EA410618BF52EAF5
:100A20004306D1D181EA030101F000414FF00000FB
:100A300070BD50EA410606BF1046194652EA430609
:100A400019D094EA0C0F02D150EA013613D195EA7D
:100A50000C0F05D152EA03361CBF104619460AD1C5
:100A600081EA030101F0004141F0FE4141F47001CF
:100A70004FF0000070BD41F0FE4141F4780170BDBF
:100A800070B54FF0FF0C4CF4E06C1CEA11541DBF24
:100A90001CEA135594EA0C0F95EA0C0F00F0A7F826
:100AA000A4EB050481EA030E52EA03354FEA013153
:100AB00000F088804FEA03334FF0805545EA131366
:100AC00043EA12634FEA022245EA111545EA10652E
:100AD0004FEA00260EF000419D4208BF964244F1C5
:100AE000FD0404F5407402D25B084FEA3202B61AE4
:100AF00065EB03055B084FEA32024FF480104FF4B8
:100B0000002CB6EB020E75EB030E22BFB61A75462B
:100B100040EA0C005B084FEA3202B6EB020E75EBBE
:100B2000030E22BFB61A754640EA5C005B084FEA26
:100B30003202B6EB020E75EB030E22BFB61A7546F3
:100B400040EA9C005B084FEA3202B6EB020E75EBFE
:100B5000030E22BFB61A754640EADC0055EA060EBF
:100B600018D04FEA051545EA16754FEA06164FEA02
:100B7000C30343EA52734FEAC2025FEA1C1CC0D1AE
:100B800011F4801F0BD141EA00014FF000004FF03B
:100B9000004CB6E711F4801F04BF01430020B4F1FC
:100BA000FD0C88BFBCF5E06F3FF6AFAEB5EB030CB4
:100BB00004BFB6EB020C5FEA500C50F1000041EBB1
:100BC000045170BD0EF0004E4EEA113114EB5C047E
:100BD000C2BFD4EB0C0541EA045170BD41F4801151
:100BE0004FF0000E013C90E645EA060E8DE60CEA59
:100BF000135594EA0C0F08BF95EA0C0F3FF43BAF76
:100C000094EA0C0F0AD150EA01347FF434AF95EA2C
:100C10000C0F7FF425AF104619462CE795EA0C0F10
:100C200006D152EA03353FF4FDAE1046194622E7DD
:100C300050EA410618BF52EA43067FF4C5AE50EAB7
:100C400041047FF40DAF52EA43057FF4EBAE12E7A7
:100C50004FF0FF3C06E000BF4FF0010C02E000BF88
:100C60004FF0010C4DF804CD4FEA410C7FEA6C5C6B
:100C70004FEA430C18BF7FEA6C5C1BD001B050EA0E
:100C8000410C0CBF52EA430C91EA030F02BF90EAF9
:100C9000020F0020704710F1000F91EA030F58BFB8
:100CA000994208BF90422CBFD8176FEAE37040F01A
:100CB000010070474FEA410C7FEA6C5C02D150EAB8
:100CC000013C07D14FEA430C7FEA6C5CD6D152EA73
:100CD000033CD3D05DF8040B704700BF8446104638
:100CE00062468C461946634600E000BF01B5FFF737
:100CF000B7FF002848BF10F1000F01BD4DF808ED07
:100D0000FFF7F4FF0CBF012000205DF808FB00BFD7
:100D10004DF808EDFFF7EAFF34BF012000205DF831
:100D200008FB00BF4DF808EDFFF7E0FF94BF01207E
:100D300000205DF808FB00BF4DF808EDFFF7CEFF7F
:100D400094BF012000205DF808FB00BF4DF808EDBE
:100D5000FFF7C4FF34BF012000205DF808FB00BF8F
:100D60004FEA410C7FEA6C5C02D150EA013C0AD1A7
:100D70004FEA430C7FEA6C5C02D152EA033C02D199
:100D80004FF0000070474FF0010070474FEA4102FA
:100D900012F5001215D211D56FF47873B3EB6252CD
:100DA00012D94FEAC12343F0004343EA505311F0F4
:100DB000004F23FA02F018BF404270474FF0000086
:100DC000704750EA013005D111F0004008BF6FF0C4
:100DD000004070474FF00000704700BF0348044BCD
:100DE000834202D0034B03B118477047C40600206A
:100DF000C4060020000000000548064B1B1AD90F4E
:100E000001EBA301491002D0034B03B1184770470F
:100E1000C4060020C40600200000000010B5064CE7
:100E2000237843B9FFF7DAFF044B13B10448AFF35B
:100E300000800123237010BDC406002000000000C4
:100E4000ECA9000808B5054B1BB105490548AFF3EF
:100E50000080BDE80840FFF7CFBF00BF00000000E2
:100E6000C8060020ECA9000800B587B002460023A0
:100E700000930193029303930493059340F201318D
:100E80000091082104916946024801F017FA07B061
:100E90005DF804FBD007002070B588B000240394EF
:100EA00004940594069407941B4BDA6C42F00402F8
:100EB000DA64DA6C02F004020092009ADA6C42F012
:100EC0000102DA64DA6C02F001020192019ADA6C32
:100ED00042F00202DA64DB6C03F002030293029B2D
:100EE0000E4E22460821304601F0BFFD0823039331
:100EF000012504950594069403A9304601F0D2FC1F
:100F00001023039304940595069403A94FF0904091
:100F100001F0C8FC08B070BD001002400004004899
:100F200000B587B002460023009301930293039318
:100F3000049305938021009104210491694603489C
:100F400001F0BCF907B05DF804FB00BFD00700203A
:100F500000B587B0024600230093019302930393E8
:100F60000493059340F20121009108210491694600
:100F7000024801F0A3F907B05DF804FBD007002098
:100F800010B5054C204600F0F9FF204600F066FD44
:100F9000C0F30F1010BD00BFF807002038B504469D
:100FA00010214FF0904001F059FD0546FFF7E8FF92
:100FB0002080184B1B7803B346281ED9FA232380C0
:100FC000237943F0100323711423638023796FF393
:100FD0008203237145B9DBB26FF341032371DBB2A6
:100FE00043F00103237113E0237943F002032371DB
:100FF000DBB26FF3000323710AE023796FF304136C
:10100000237100236380227963F30002227123801D
:1010100038BD00BFFC06002008B50B4BB3F9062015
:1010200019680A4803F0F2FA094803F051FB094B2A
:1010300019885A685B6803F00103C2F3001289B291
:10104000054803F0E3FA08BDE006002008AA0008FE
:1010500024AA0008F406002038AA000810B5074C9E
:101060002046FFF79BFF0648FFF75AFF2046FFF791
:101070006FFF0448FFF7F8FE10BD00BFF406002024
:10108000F0060020690E000800B585B001900A281E
:101090000AD04FF0FF33012201A9094802F0DDFF19
:1010A000012005B05DF804FB0D238DF80F304FF0E3
:1010B000FF3301220DF10F01014802F0CEFFE8E7F6
:1010C0000007002072B6FEE708B50B480B4B036023
:1010D0004FF4E133436000238360C36003610C225B
:1010E00042618361C3610362436203F05AF800B94D
:1010F00008BDFFF7E7FF00BF0007002000440040E5
:1011000008B50D480D4B0360042343600023836042
:10111000C3604FF4302202614FF400124261037643
:1011200043768376C3760377437700F06DFF00B98B
:1011300008BDFFF7C7FF00BFD007002000640040D4
:1011400000B587B0002300930193029303930493A7
:1011500005931848184A026043608360C3600361C6
:1011600004224261037643760122C26180F8203076
:101170008362C36280F83030436380F8383000F017
:101180007FFB90B90D4B009306230193002302933C
:101190007F2203920422049205936946054800F0D9
:1011A00061FC20B907B05DF804FBFFF78BFFFFF788
:1011B00089FF00BFF80700200000045000018021D3
:1011C00000B585B000230193029303930E480F4AA4
:1011D00002604FF4C852426083606423C36080237E
:1011E000836102F0D1FC50B900230193039301A95C
:1011F000054802F0F9FC20B905B05DF804FBFFF7E3
:1012000061FFFFF75FFF00BF840700200010004070
:1012100000B597B04422002105A803F061F900232E
:10122000009301930293039304934FF4007001F031
:1012300033FC28BB022305934FF4807208921022DE
:1012400009920F9310930122119208221292072201
:1012500013921493159305A801F008FD90B90F237C
:10126000009303210191002302934FF480630393C1
:101270000493684602F030F830B917B05DF804FB0B
:10128000FFF720FFFFF71EFFFFF71CFF00B58DB033
:1012900000F094FAFFF7BCFF3C4B00241C801A7945
:1012A00064F304121A715C801A7964F300021A71F3
:1012B000374B1A7842F001021A701A7842F0020293
:1012C0001A70344B1C809C80DC805C80FFF7E4FD4E
:1012D000FFF7FAFEFFF714FFFFF732FFFFF770FF8B
:1012E0002D4DAB6D43F01003AB65AB6D03F01003F8
:1012F0000093009B294802F007FB362001F0BAFA60
:10130000142001F0B7FA069443F2200302930394E9
:1013100004940594012309930A93214C02A92046C1
:1013200000F018FF204600F09BFF0221204601F04C
:10133000F8F8EB6C43F40053EB64EB6C03F40053EC
:101340000193019B174800F019FE15E0164B01228E
:101350001A70104BC8221A8014225A804FF47A72E5
:101360009A800A4B1A7942F010021A71FA221A80F6
:101370004FF47A7000F044FAFFF74EFE0B4BB3F9CE
:10138000062040F233439A42E0D0F1E7F406002011
:10139000F0060020E806002000100240840700202C
:1013A000D0070020F8070020FC060020E0060020FF
:1013B00082B00A4B1A6E42F001021A661A6E02F0EF
:1013C00001020092009A9A6D42F080529A659B6DDC
:1013D00003F080530193019B02B07047001002405C
:1013E00010B59CB0044600211791189119911A91DB
:1013F0001B91542202A803F073F822681E4B9A42F4
:1014000001D01CB010BD4FF4804302934FF08053C5
:1014100014930223039301220492082205920722C7
:101420000692079308934FF08073099302A802F085
:10143000F7F8F0B9114BDA6C42F40052DA64DA6C66
:1014400002F400520092009ADA6C42F00102DA646F
:10145000DB6C03F001030193019B082317930B231B
:1014600018930023199317A94FF0904001F01AFA2E
:10147000C7E7FFF727FEDDE7000004500010024039
:1014800000B589B000230393049305930693079353
:1014900002681C4B9A4202D009B05DF804FB03F5C8
:1014A000D6339A6D42F000729A659A6D02F000721E
:1014B0000192019ADA6C42F00102DA64DB6C03F00B
:1014C00001030293029B4FF4C0530393022304933E
:1014D000032306930923079303A94FF0904001F0DB
:1014E000E1F900221146142001F0B4F9142001F0B2
:1014F000C1F900221146152001F0ACF9152001F0C8
:10150000B9F9C9E70064004002680E4B9A4200D066
:10151000704700B583B003F500339A6D42F01002B6
:101520009A659B6D03F010030193019B0022114605
:10153000362001F08FF9362001F09CF903B05DF8F8
:1015400004FB00BF0010004070B59CB004460021B1
:101550001791189119911A911B91542202A802F027
:10156000BFFF22681E4B9A4201D01CB070BD0223FF
:10157000029302A802F054F800282ED1194B9A6D5C
:1015800042F400329A659A6D02F400320092009A99
:10159000DA6C42F00102DA64DB6C03F001030193C0
:1015A000019B0423179302261896002519950324FE
:1015B0001A9407231B9317A94FF0904001F072F97A
:1015C0004FF400431793189619951A941B9417A972
:1015D0004FF0904001F066F9C7E7FFF773FDCDE7E4
:1015E0000044004000100240FEE7FEE7FEE7FEE791
:1015F000FEE770477047704708B500F0EFF808BD88
:1016000008B50021094800F079FF18B9074800F033
:10161000A7FF08BD0821064801F02CFA054B00225F
:101620001146024800F0BFFEF0E700BFD0070020DF
:1016300000040048E006002008B5024800F090FFD2
:1016400008BD00BFD007002008B5024802F096F997
:1016500008BD00BF840700200120704708B502F0D4
:101660002FFF162303604FF0FF3008BD08B54FF081
:10167000FF31FFF7F3FFFEE770B50C461646002575
:1016800006E0AFF30080214601F8010B01350C465E
:10169000B542F6DB304670BD70B50C4616460025E7
:1016A00004E014F8010BFFF7EFFC0135B542F8DB5D
:1016B000304670BD4FF0FF3070474FF400534B6021
:1016C00000207047012070470020704710B5034686
:1016D0000C4A0D490D48006840B10C4800680344AD
:1016E000521A934206D8094A136010BD0748084CA5
:1016F0000460F2E702F0E4FE0C2303604FF0FF30D9
:10170000F3E700BF00000120000400005C08002097
:10171000780B002070470000DFF834D0FFF7FAFFA5
:101720000C480D490D4A002302E0D458C45004333C
:10173000C4188C42F9D30A4A0A4C002301E0136012
:101740000432A242FBD302F01DFFFFF79FFDFEE72C
:101750000000012000000020C4060020B4AE0008F4
:10176000C4060020780B0020FEE70000104B1B7819
:101770000BB90120704710B504464FF47A70B0FBE6
:10178000F3F30C4A1068B0FBF3F001F077F868B996
:101790000F2C01D901200AE0002221464FF0FF3032
:1017A00001F058F8044B1C60002000E0012010BD3F
:1017B00004000020000000200800002010B50320D5
:1017C00001F036F80020FFF7D1FF10B101242046C8
:1017D00010BD0446FFF7ECFDF9E70000034B1B7852
:1017E000034A11680B441360704700BF04000020D7
:1017F00060080020014B1868704700BF6008002097
:1018000038B50446FFF7F6FF0546B4F1FF3F02D0B6
:10181000044B1B781C44FFF7EDFF401BA042FAD39A
:1018200038BD00BF0400002010B430300B0A9B000C
:1018300003F00C03C45801F01F014FF01F0C0CFA09
:1018400001FC24EA0C0CC2F384628A404CEA0202D6
:10185000C25010BC704710B414304B0E9B0003F004
:101860000403C458C1F304514FF0070C0CFA01FCF7
:1018700024EA0C0C8A404CEA0202C25010BC7047A9
:1018800030B583B000230193002800F0DA800446CD
:10189000436D13B323689A6812F0005F05D09A680D
:1018A00022F0204222F03F029A602268936813F0EF
:1018B000805F1FD1936823F0104323F03F0343F070
:1018C00080539360604B1B689B09604AA2FB032313
:1018D0009B0901335B00019309E0FFF781FD0023C1
:1018E000A36584F85030D5E7019B013B0193019B30
:1018F000002BF9D12268936813F0805F78D1636D73
:1019000043F010036365A36D43F00103A365012059
:10191000936813F0040300D00123616D11F0100FE0
:1019200040F08880002B40F08580636D23F4817344
:1019300043F002036365936813F0010F0BD1444B2E
:101940009B6813F0010F06D1636842498A6822F44C
:101950007C1213438B60627E636B43EA4233E2681E
:101960001343A268134394F8202043EA0243012A58
:1019700040D0A26A22B102F47072E16A0A431343B2
:101980002168CD68344A2A401A43CA6021688B68AE
:1019900013F0040300D001238A6812F0080200D07B
:1019A0000122B3B9AAB9237E94F83020520042EA4A
:1019B0008332CB6823F4804323F002031343CB60CC
:1019C00094F83830012B1AD02268136923F00103F0
:1019D00013612369012B24D02268136B23F00F03BA
:1019E0001363636D23F0030343F00103636526E093
:1019F00000208DE7626A013A43EA4243B9E7216871
:101A00000B6923F4FF6323F00403E26B256C2A4384
:101A1000656C2A43A56C2A43134343F001030B6111
:101A2000D7E721680B6B23F00F03E269013A1343F8
:101A30000B63D6E7636D43F010036365012003B0C9
:101A400030BD0120FBE700BF00000020632D3E05F4
:101A5000000004500003045007C0F0FF0368186C36
:101A600070470000F0B583B00023019390F8503028
:101A7000012B00F00A8204460D46012380F8503005
:101A800003689B6813F0040F09D0436D43F02003F3
:101A900043650120002384F8503003B0F0BD4B684B
:101AA000052B08D8023B032B56D8DFE803F0024B86
:101AB0004E510C234B602A6869682068FFF7B4FE1A
:101AC0002068836813F0040300D00123826812F0B9
:101AD000080200D001220BB9002A40D02268936886
:101AE00013F0010F17D12B68E868D2F8B010C3F3D8
:101AF000120621EA060100F0180CAA4820FA0CF0A0
:101B00000340C3F312030B43C2F8B030EA68A64B9C
:101B10009A4200F0A9802B68A44A134200F0B181D8
:101B2000A34A926802F0E070A2498B4200F05B8108
:101B3000A1498B4200F07E81A0498B4200F08E814A
:101B40000020A7E712234B60B5E718234B60B2E7EC
:101B50004FF480734B60AEE706234B60ABE7AA6897
:101B60002968FFF778FE69692268D368C3F3C10367
:101B70005B009940286904280ED02E68603252F824
:101B800020708F4B3B4006F0F84631430B4343F047
:101B9000004342F82030A1E7136E116EC1F3846157
:101BA0002B68C3F3120080BBC3F38463994234D023
:101BB00021684B6E4A6EC2F384622B68C3F3120035
:101BC00080BBC3F384639A4234D021688B6E8A6EE3
:101BD000C2F384622B68C3F3120080BBC3F3846337
:101BE0009A4234D02168CB6ECA6EC2F384622B68ED
:101BF000C3F3120080BBC3F384639A427FF46EAFD9
:101C0000CB6E23F00043CB6668E793FAA3F313B1DE
:101C1000B3FA83F3CAE72023C8E7136E23F0004327
:101C20001366C5E793FAA3F313B1B3FA83F3CAE7D4
:101C30002023C8E74B6E23F000434B66C5E793FAB9
:101C4000A3F313B1B3FA83F3CAE72023C8E78B6E7B
:101C500023F000438B66C5E793FAA3F313B1B3FAFD
:101C600083F3CAE72023C8E720682B68C3F3120672
:101C70003EBB9A0E013202F01F02092A8CBF0022DD
:101C80000122002A55D05EBB990E0131890601F070
:101C9000F8418EBB4FEA936C0CF1010C0CF01F0C59
:101CA000012202FA0CF21143AEBB9B0E013303F08A
:101CB0001F0303EB43031B051943AA68FFF7CBFD82
:101CC00029E793FAA3F24AB1B2FA82F2013202F0A2
:101CD0001F02092A8CBF00220122D2E72022F5E749
:101CE00093FAA3F131B1B1FA81F10131890601F022
:101CF000F841CEE72021F8E793FAA3F24AB1B2FA0D
:101D000082F2013202F01F024FF0010C0CFA02F2D3
:101D1000C9E72022F5E793FAA3F343B1B3FA83F3BB
:101D2000013303F01F0303EB43031B05C4E7202328
:101D3000F6E7E6B9990E0131890601F0F84116BBC4
:101D40004FEA936C0CF1010C0CF01F0C012202FA0B
:101D50000CF21143B6BB9B0E013303F01F0303EBE0
:101D600043031E3B1B0543F000731943A5E793FA99
:101D7000A3F131B1B1FA81F10131890601F0F841E5
:101D8000DDE72021F8E793FAA3F24AB1B2FA82F232
:101D9000013202F01F024FF0010C0CFA02F2D8E7F8
:101DA0002022F5E7FFFF070000007F4000000880C9
:101DB00000030450000052C7000084CB01000080E3
:101DC00000F0FF0393FAA3F35BB1B3FA83F301339B
:101DD00003F01F0303EB43031E3B1B0543F000739B
:101DE000C3E72023F3E712F4000F7FF4A1AE2268CB
:101DF000274B9A4201D000204CE640F400032549CD
:101E00008A6822F0E07213438B60234B1B689B09A6
:101E1000224AA2FB03239B09013303EB43039B00EC
:101E2000019302E0019B013B0193019B002BF9D13F
:101E300000202FE612F0807F7FF47EAE2268144BE4
:101E40009A4201D0002025E640F0807311498A684B
:101E500022F0E07213438B6000201BE612F4800F27
:101E600011D122680A4B9A4201D0002012E640F4B8
:101E7000800308498A6822F0E07213438B600020D7
:101E800008E6002006E6002004E6022005E600BF82
:101E9000000004500003045000000020632D3E05A4
:101EA00030B583B00023019303689A6812F0010FE4
:101EB00058D1044699682D4A114219D19A6822F0E6
:101EC000004222F03F0242F001029A60284B9B68D8
:101ED00013F4000F1CD0274B1B689B09264AA2FB5A
:101EE00003239B09013303EB43039B0001930CE0A5
:101EF000436D43F010034365836D43F00103836535
:101F0000012030E0019B013B0193019B002BF9D1A3
:101F1000FFF770FC054623681A6812F0010F1FD105
:101F20009A6812F0010F07D19A6822F0004222F05D
:101F30003F0242F001029A60FFF75CFC431B022B58
:101F4000E9D923681B6813F0010FE4D1636D43F0F6
:101F500010036365A36D43F00103A365012002E054
:101F6000002000E0002003B030BD00BF3F00008033
:101F70000003045000000020632D3E0503689B68A9
:101F800013F0040F3CD110B5044690F85030012BEB
:101F900038D0012380F85030FFF782FF60BB636DBB
:101FA00023F4706323F0010343F480736365636D6E
:101FB00013F4805F1DD0A36D23F00603A36523688F
:101FC0001C221A60002384F850302268D36813F072
:101FD000007F05D0636D23F4405343F48053636561
:101FE000936823F0004323F03F0343F0040393601E
:101FF00010BD0023A365E2E7002384F85030F7E723
:10200000022070470220F3E7002800F0A18038B5D5
:10201000044690F82030D3B12268136843F00103DE
:102020001360FFF7E7FB054623685A6812F0010FBB
:1020300010D1FFF7DFFB401B0A28F5D9636A43F490
:1020400000336362052384F82030012038BDFFF798
:1020500017FAE1E71A6822F002021A60FFF7CAFBDA
:10206000054623685A6812F0020F0DD0FFF7C2FB35
:10207000401B0A28F5D9636A43F4003363620523E1
:1020800084F820300120E1E7227E012A3DD01A6841
:1020900022F080021A60637E012B3BD02268136815
:1020A00023F040031360A37E012B39D0226813680C
:1020B00023F020031360E37E012B37D022681368DE
:1020C00043F010031360237F012B35D0226813687F
:1020D00023F008031360637F012B33D02268136859
:1020E00023F004031360A368E268134322691343D7
:1020F000626913436268013A21681343CB6100208F
:102100006062012384F82030A0E71A6842F0800260
:102110001A60C0E72268136843F040031360C2E707
:102120002268136843F020031360C4E72268136831
:1021300023F010031360C6E72268136843F0080316
:102140001360C8E72268136843F004031360CAE70A
:1021500001207047026890F82030013BDBB2012B70
:1021600005D9436A43F4802343620120704710B5C8
:10217000D2F8003243F00103C2F800324B6903F099
:102180001F03012000FA03F3D2F81C026FEA030CCC
:1021900020EA0300C2F81C02C869C0B9D2F80C02D8
:1021A0000CEA0000C2F80C028C884869D1F80CE0F7
:1021B00044EA0E44483042F830400C884869D1F86F
:1021C00008E044EA0E44483002EBC0004460C869AD
:1021D00001281AD0886988BBD2F804020CEA0000F2
:1021E000C2F80402086978BBD2F814020CEA0000B5
:1021F000C2F81402096A01292CD0D2F8003223F067
:102200000103C2F80032002010BDD2F80C021843BE
:10221000C2F80C028C884869D1F800E044EA0E4408
:10222000483042F830408C894869D1F808E044EAE7
:102230000E44483002EBC0004460CBE7D2F8040201
:102240001843C2F80402CDE7D2F814021843C2F8CA
:102250001402CFE7D2F81C120B43C2F81C32CCE7B1
:1022600070B5044690F82050EDB2012D06D0436AB7
:1022700043F4002343620125284670BD022380F801
:1022800020300268136823F001031360FFF7B2FAED
:10229000064623685B6813F0010F0CD0FFF7AAFA1B
:1022A000831B0A2BF5D9636A43F400336362052369
:1022B00084F82030E0E700256562DDE730B590F86E
:1022C00020C00468A4680CF1FF3C5FFA8CFCBCF1F0
:1022D000010F62D814F0E05F59D0C4F3016C0124FF
:1022E00004FA0CF41C608B68002B3DD10D68CB68A0
:1022F000046843EA45550CF118031B01E5500368D7
:102300000C690CF1180E03EB0E135C600B7D012BB6
:1023100035D0D17993791B0443EA0163517943EABB
:10232000012314790168234301EB0C11C1F88C31AE
:10233000D17893781B0443EA0163517843EA01237F
:10234000117802680B4302EB0C12C2F88831026864
:102350000CF1180C4FEA0C1C52F80C3043F001033E
:1023600042F80C3000201DE04C6843EAC403CC68FE
:1023700023430CF11804240105682B51BFE70368BF
:1023800003EB0E13596841F480715960C1E7436A49
:1023900043F400134362012004E0436A43F48023C2
:1023A0004362012030BD90F820C00CF1FF3C5FFA81
:1023B0008CFCBCF1010F00F29B8010B451B9046891
:1023C000E46814F0030F10D1436A43F4001343622E
:1023D00001207BE00468246914F0030F05D1436AEF
:1023E00043F400134362012070E001F11B04240157
:1023F000D0F800C05CF8044004F004049460002CA1
:1024000066D101F11B042401D0F800C05CF804403F
:10241000640D1460046801F11B0C4FEA0C1C54F8A5
:102420000C4004F00204D46004686444646804F05E
:102430000F041461046864446468C4F3072494615D
:10244000046864446468240C5461026802EB01125D
:10245000D2F8B8211A70026802EB0112D2F8B82142
:10246000C2F307225A70026802EB0112D2F8B821B7
:10247000C2F307429A70026802EB0112D2F8B82147
:10248000120EDA70026802EB0112D2F8BC211A7146
:10249000026802EB0112D2F8BC21C2F307225A7182
:1024A000026802EB0112D2F8BC21C2F307429A7112
:1024B000026802EB0112D2F8BC21120EDA7189B95E
:1024C0000268D36843F02003D360002010BC70473B
:1024D00001F11B042401D0F800C05CF80440E408BA
:1024E000546097E70268136943F020031361ECE737
:1024F000436A43F4802343620120704790F8203000
:10250000013BDBB2012B01D90020704721B90368E0
:10251000D86800F0030070470368186900F00300F2
:10252000704790F82030013BDBB2012B05D9436A9C
:1025300043F48023436201207047026853690B43D0
:10254000536100207047704770477047704770476D
:1025500070477047704770477047704770477047C3
:102560002DE9F84F054603685C69D3F804809F683D
:10257000D3F80CB0D3F810A0D3F8189014F00106DB
:102580003BD017F0010616D001229A6017F0020F17
:1025900008D117F0040F0CD117F0080606D04FF43D
:1025A000805608E0FFF7CFFF002604E0FFF7CEFFDC
:1025B00001E04FF4006617F4807F0DD02B684FF4D4
:1025C00080729A6017F4007F40F0868017F4806F65
:1025D00000F0868046F4005617F4803F0DD02B683B
:1025E0004FF480329A6017F4003F40F0838017F474
:1025F000802F00F0838046F4004614F0080F07D0C7
:102600001BF0100F04D046F400762B681022DA601D
:1026100014F0040F02D01BF0080F79D114F0020F50
:1026200004D02B68DB6813F0030F78D114F0400F4F
:1026300007D01AF0100F04D046F480662B681022E1
:102640001A6114F0200F02D01AF0080F6BD114F0A9
:10265000100F04D02B681B6913F0030F6AD114F418
:10266000003F02D018F0100F68D114F4803F02D060
:1026700018F0080F69D114F4004F7AD018F0040F45
:1026800074D014F4807F04D019F0010F01D046F00B
:10269000010614F4007F04D019F0020F01D046F0B7
:1026A000020614F4806F04D019F0040F01D046F034
:1026B000040614F4006F59D019F0700956D0B9F11E
:1026C000400F65D058D8B9F1200F5ED0B9F1300F66
:1026D00042D146F0200644E02846FFF735FF7BE76D
:1026E00017F4006F02D046F4804675E72846FFF7DE
:1026F0002EFF71E72846FFF728FF7EE717F4002F2B
:1027000002D046F4803678E72846FFF721FF74E7C9
:102710002B680822DA602846FFF71CFF7EE7284670
:10272000FFF717FF82E72B6808221A612846FFF798
:1027300013FF8CE72846FFF70EFF90E72B68102267
:102740005A602846FFF709FF8FE72B6808225A6076
:102750002846FFF703FF8EE7B9F1100F01D146F0CD
:1027600008062A68936923F0700393612B6804229A
:102770005A609EB9BDE8F88FB9F1500F0BD0B9F18E
:10278000600FEED146F48076EBE746F01006E8E7FE
:1027900046F04006E5E746F08006E2E76B6A334321
:1027A0006B622846FFF7DBFEE4E70000002807DB4A
:1027B00000F01F02400901239340024A42F82030F2
:1027C000704700BF00E100E0002808DB0901C9B242
:1027D00000F1604000F5614080F80013704700F0A0
:1027E0000F000901C9B2014B1954704714ED00E004
:1027F00000B500F00700C0F1070CBCF1040F28BFC2
:102800004FF0040C031D062B0FD9C31E4FF0FF3EE3
:102810000EFA0CF021EA000199400EFA03FE22EABA
:102820000E0241EA02005DF804FB0023EEE700001F
:10283000074AD36823F4E0631B041B0C000200F476
:10284000E060034343F0BF6343F40033D360704759
:1028500000ED00E010B50446054BD868C0F3022037
:10286000FFF7C6FF01462046FFF7AEFF10BD00BFD1
:1028700000ED00E008B5FFF799FF08BD0138B0F1A1
:10288000807F0BD24FF0E0235861054AF02182F897
:1028900023100020986107221A61704701207047B9
:1028A00000ED00E070B582B0002365E085685E0051
:1028B0000324B44025EA0405CC68B4402C4384606A
:1028C000456825EA0C054C68C4F300149C402C4371
:1028D000446062E0DD08083550F8254003F0070C3D
:1028E0004FEA8C0C4FF00F0E0EFA0CFE24EA0E0E7F
:1028F0000C6904FA0CF444EA0E0440F8254063E045
:10290000022400E0002404FA0EF42C430CF1020C23
:102910004E4D45F82C404E4CA568D44325EA02069E
:10292000D1F804C01CF4801F01D042EA0506484DCE
:10293000AE60ED6804EA0506D1F804C01CF4001F7F
:1029400001D042EA0506424DEE606D6804EA0506D4
:10295000D1F804C01CF4003F01D042EA05063C4D0A
:102960006E602D682C404E6816F4803F01D042EA1C
:102970000504374A146001330A6832FA03F462D05E
:102980004FF0010C0CFA03FC1CEA0202F3D04C6875
:1029900004F00304013C012C88D94C6804F00304C2
:1029A000032C0CD0C4685D004FF0030C0CFA05FC3E
:1029B00024EA0C0C8C68AC4044EA0C04C4604C68FB
:1029C00004F00304022C85D004684FEA430E4FF054
:1029D000030C0CFA0EFC24EA0C0C4C6804F0030403
:1029E00004FA0EF444EA0C0404604C6814F4403F0A
:1029F000C1D0184C256E45F001052566246E04F003
:102A000001040194019C4FEA930C0CF102050F4C58
:102A100054F8255003F0030E4FEA8E0E0F2404FAEB
:102A20000EF425EA0405B0F1904F3FF46BAF0A4C69
:102A3000A04206D004F58064A0423FF461AF0724B1
:102A400061E701245FE702B070BD00BF00000140F4
:102A500000040140001002400004004803691942CC
:102A600001D001207047002070470AB18161704792
:102A700081627047436901EA030221EA030141EAE6
:102A80000241816170470000024B186800F4C06089
:102A9000704700BF00700040B0F5007F0FD01F4BA3
:102AA0001B6803F4C063B3F5806F34D01B4A13680E
:102AB00023F4C06343F48063136000207047174B16
:102AC0001B6803F4C063B3F5007F20D0134A13687A
:102AD00023F4C06343F400731360114B1B6832226C
:102AE00002FB03F30F4AA2FB03239B0C013300E01C
:102AF000013B0A4A526912F4806F01D0002BF7D1D2
:102B0000064B5B6913F4806F03D1002070470020EF
:102B10007047032070470020704700BF00700040DE
:102B20000000002083DE1B4330B583B00446204BF9
:102B30009B6D13F0805F0BD0FFF7A6FFB0F5007F11
:102B400017D0802C1FD82DD0702C2DD000211BE049
:102B5000174DAB6D43F08053AB65AB6D03F0805305
:102B60000193019BFFF790FFAB6D23F08053AB65A2
:102B7000E4E7802C03D9A02C03D9022104E0002132
:102B800002E0012100E003210A4A136823F0070351
:102B90000B431360136803F007038B4206D1002038
:102BA00003B030BD0221EFE70121EDE70120F7E797
:102BB0000010024000200240284A9368D26802F0C8
:102BC000030213F00C030AD00C2B06D0042B1FD0E9
:102BD000082B20D00020024610E0012AF6D11F4A1F
:102BE000126812F0080F0CD11C4AD2F89420C2F3DC
:102BF00003221B4951F8222043B100200C2B0DD099
:102C00007047164A1268C2F30312F2E71046F5E75E
:102C100014480022F2E714480022EFE70F4BDB686C
:102C200003F00303022B16D0032B00D10E4A0B49ED
:102C3000CB68C3F302130133C868C0F3062002FB5C
:102C400000F0B0FBF3F0CB68C3F3416301335B00EA
:102C5000B0FBF3F0D4E7034AE9E700BF00100240FD
:102C60006CAA00080024F40000366E01002800F071
:102C70001C83F0B583B00446964B9D6805F00C05A7
:102C8000DE6806F00306036813F0100F5AD0E5B1B2
:102C90000C2D18D0A369002B00F0BB808D4A13685F
:102CA00043F001031360FEF7A5FD0746894B1B683F
:102CB00013F0020F40F09A80FEF79CFDC01B022823
:102CC000F4D90320FCE2012EE4D1824B1B6813F0FF
:102CD000020F03D0A369002B00F0E982206A7D4B2C
:102CE0001B6813F0080F5BD07A4B1B6803F0F003EE
:102CF00098425CD8774B1A6842F008021A601A684A
:102D000022F0F002216A0A431A605A6822F47F42D4
:102D1000E16942EA01225A60002D60D0FFF74CFFC2
:102D20006C4B9B68C3F303136B4AD35C03F01F0324
:102D3000D8406A4B18606A4B1868FEF717FD0028E8
:102D400040F0BE82236813F0010F00F08180082D4F
:102D500075D00C2D71D06368B3F5803F00F097807B
:102D6000B3F5A02F00F099805A4B1A6822F48032F4
:102D70001A601A6822F480221A606368002B00F03F
:102D80009980FEF737FD0746524B1B6813F4003F4E
:102D90005ED1FEF72FFDC01B6428F5D903208FE21A
:102DA0004C4BD3F894301B0903F0F003A0E7FFF776
:102DB000BBFE002840F07D82464B1A6842F00802B4
:102DC0001A601A6822F0F002216A0A431A605A68EF
:102DD00022F47F42E16942EA01225A609EE7206ABA
:102DE000FFF7A2FE002899D0012069E2394B1A684A
:102DF00042F008021A601A6822F0F002216A0A43BF
:102E00001A605A6822F47F42E16942EA01225A605C
:102E100098E7304A136823F001031360FEF7EAFCD9
:102E200007462C4B1B6813F0020F8BD0FEF7E2FC19
:102E3000C01B0228F5D9032042E2032E8BD1254B7B
:102E40001B6813F4003F03D06368002B00F033824B
:102E5000236813F0020F58D0042D45D00C2D41D01B
:102E6000E368002B77D01B4A136843F48073136028
:102E7000FEF7C0FC0646174B1B6813F4806F61D148
:102E8000FEF7B8FC801B0228F5D9032018E2114A8E
:102E9000136843F4803313606FE703F18043A3F5B5
:102EA0003C331A6842F480221A601A6842F4803275
:102EB0001A6062E7FEF79EFC0746064B1B6813F498
:102EC000003FC5D0FEF796FCC01B6428F5D903204F
:102ED000F6E100BF00100240A4AA00080000002094
:102EE00008000020022EBBD1A44B1B6813F4806F96
:102EF00003D0E368002B00F0E081A04A536823F080
:102F0000F853216943EA01635360236813F0080F03
:102F10004CD063699BB3994AD2F8943043F00103D3
:102F2000C2F89430FEF766FC0646944BD3F8943012
:102F300013F0020F3AD1FEF75DFC801B0228F4D992
:102F40000320BDE18D4A536823F0F853216943EA19
:102F500001635360D9E7894A136823F480731360CF
:102F6000FEF748FC0646854B1B6813F4806FCCD0F7
:102F7000FEF740FC801B0228F5D90320A0E17F4A20
:102F8000D2F8943023F00103C2F89430FEF732FCFB
:102F900006467A4BD3F8943013F0020F06D0FEF7B2
:102FA00029FC801B0228F4D9032089E1236813F04F
:102FB000040F7AD0714B9B6D13F0805F36D16F4B4D
:102FC0009A6D42F080529A659B6D03F08053019395
:102FD000019B01266A4B1B6813F4807F28D0A368ED
:102FE000012B39D0052B3FD0644BD3F8902022F031
:102FF0000102C3F89020D3F8902022F00402C3F815
:103000009020A368002B3DD0FEF7F4FB07465B4BF6
:10301000D3F8903013F0020F46D1FEF7EBFBC01B44
:1030200041F288339842F2D9032049E10026D1E7E2
:10303000534A136843F480731360FEF7DBFB0746C3
:103040004F4B1B6813F4807FC9D1FEF7D3FBC01B25
:103050000228F5D9032033E1484AD2F8903043F0F2
:103060000103C2F89030CCE7444BD3F8902042F0F3
:103070000402C3F89020D3F8902042F00102C3F874
:103080009020BEE7FEF7B6FB07463C4BD3F89030E6
:1030900013F0020F08D0FEF7ADFBC01B41F28833DE
:1030A0009842F2D903200BE1E6B9236813F0200F10
:1030B00035D0636AE3B1314AD2F8983043F0010366
:1030C000C2F89830FEF796FB06462C4BD3F89830A2
:1030D00013F0020F23D1FEF78DFB801B0228F4D9D9
:1030E0000320EDE0254A936D23F080539365DCE7E0
:1030F000224AD2F8983023F00103C2F89830FEF744
:1031000079FB06461D4BD3F8983013F0020F06D01A
:10311000FEF770FB801B0228F4D90320D0E0A36ADD
:10312000002B00F0CC80022B17D00C2D00F0CC80AF
:10313000124A136823F080731360FEF75BFB0446AA
:103140000E4B1B6813F0007F00F0A880FEF752FBC7
:10315000001B0228F4D90320B2E0084BDB6803F01F
:103160000301E26A91420DD00C2D00F0AB80034BBD
:103170001B6813F0806F2FD00120A1E000100240E7
:103180000070004003F07002216B0139B2EB011FA7
:10319000EAD103F4FE42616BB2EB012FE4D103F0FC
:1031A0007842A16BB2EBC16FDED103F4C001E26BD8
:1031B0005208013AB1EB425FD6D103F0C063226CF2
:1031C0005208013AB3EB426FCED1404B1B6813F06B
:1031D000007F49D0002073E03C4A136823F08073DD
:1031E0001360FEF707FB0546384B1B6813F0007FA2
:1031F00006D0FEF7FFFA401B0228F5D903205FE056
:10320000324AD36832491940E36A206B013843EAF5
:103210000013606B43EA0023E06B4008013843EA87
:103220004053206C4008013843EA4063A06B43EAF6
:10323000C0631943D160136843F080731360D3688F
:1032400043F08073D360FEF7D5FA04461F4B1B682A
:1032500013F0007F06D1FEF7CDFA001B0228F5D946
:1032600003202DE000202BE0184B1A6842F08072FA
:103270001A60DA6842F08072DA60FEF7BBFA044640
:10328000124B1B6813F0007F06D1FEF7B3FA031B45
:10329000022BF5D9032013E0002011E00B4AD1687E
:1032A0000C4B0B40D36000200AE001207047012046
:1032B00006E0012004E0012002E0012000E00020FF
:1032C00003B0F0BD0120FBE70120F9E70010024048
:1032D0008C809D01FCFFEEFE002800F0AF8070B5F1
:1032E0000D460446594B1B6803F007038B420BD273
:1032F000564A136823F007030B431360136803F067
:1033000007038B4240F09C80236813F0020F0CD01F
:10331000A2684F4B9B6803F0F0039A4205D94C49D1
:103320008B6823F0F0031A438A60236813F0010FBF
:1033300039D06368032B09D0022B26D063BB444AE3
:10334000126812F0020F06D1012076E0404A12689E
:1033500012F0007F76D03E498A6822F003021343C0
:103360008B60FEF747FA0646394B9B6803F00C0367
:103370006268B3EB820F16D0FEF73CFA801B41F275
:1033800088339842F0D9032057E0314A126812F48A
:10339000003FE0D1012050E02D4A126812F4806F06
:1033A000D9D1012049E0236813F0020F0CD0A268A4
:1033B000274B9B6803F0F0039A4205D224498B689F
:1033C00023F0F0031A438A60204B1B6803F00703C5
:1033D000AB420AD91D4A136823F007032B4313603D
:1033E000136803F00703AB422ED1236813F0040FD8
:1033F00006D0174A936823F4E063E1680B439360B7
:10340000236813F0080F07D0114A936823F4605320
:10341000216943EAC1039360FFF7CEFB0C4B9B6825
:10342000C3F303130B4AD35C03F01F03D8400A4BCA
:1034300018600A4B1868FEF799F970BD01207047B3
:103440000120FAE70120F8E70120F6E7002002401A
:1034500000100240A4AA000800000020080000207C
:10346000014B1868704700BF0000002008B5FFF747
:10347000F7FF054B9B68C3F30223044AD35C03F0B8
:103480001F03D84008BD00BF001002409CAA0008DE
:1034900008B5FFF7E5FF054B9B68C3F3C223044A59
:1034A000D35C03F01F03D84008BD00BF00100240EA
:1034B0009CAA0008F8B504460D46584BDB6813F08B
:1034C000030F17D0554BDB6803F0030302689342E8
:1034D00001D0012616E0002A00F09E804F4BDB68E9
:1034E000C3F3021301334268934201D0012609E07D
:1034F00000261BE00368022B57D0032B5CD0012B66
:1035000002D001263046F8BD444A126812F0020F7C
:103510005ED04248C26822F073026168013943EA12
:1035200001131343C3600026002EEBD13B4A1368FE
:1035300023F080631360FEF75DF90746374B1B6885
:1035400013F0006F05D0FEF755F9C31B022BF5D918
:103550000326002ED6D1002D3CD130490B6923F033
:10356000784323F4FE43A068E268D20642EA0022D0
:1035700013430B61294A136843F080631360FEF71D
:1035800039F90546254B1B6813F0006F05D1FEF78E
:1035900031F9401B0228F5D90326002EB2D11F4A6B
:1035A0001369A1690B431361ACE71C4A126812F45A
:1035B000806FAED10126A5E7184A126812F4003FC9
:1035C000A7D1164A126812F4802FA2D1012699E7DA
:1035D0000126A9E7012D0FD01048026922F0C06230
:1035E00022F4FE42A16863695B08013B5B0643EA83
:1035F00001231A430261BDE70848026922F4C002B0
:1036000022F4FE42A16823695B08013B5B0543EAA3
:1036100001231A430261ADE7012673E7001002405F
:103620002DE9F04182B00446036813F4006F25D001
:10363000C36BB3F5000F06D0B3F5400F12D04BB1FA
:10364000012637461CE0AE4AD36843F48033D3608A
:10365000002708E000210430FFF72CFF074610B1D7
:1036600006460DE00027A64AD2F8883023F440032E
:10367000E16B0B43C2F88830002601E00026374694
:10368000236813F4003F6BD09D4B9B6D13F0805F5C
:103690004CD19B4B9A6D42F080529A659B6D03F022
:1036A00080530193019B4FF00108964A136843F43D
:1036B00080731360FEF79EF80546924B1B6813F467
:1036C000807F05D1FEF796F8401B0228F5D9032725
:1036D000002F40D18A4BD3F8903013F4407315D0AB
:1036E000226D9A4212D0864AD2F8903023F4407369
:1036F000D2F8901041F48031C2F89010D2F89010B6
:1037000021F48031C2F89010C2F8903013F0010F0C
:103710000FD1002F40F0C980794AD2F8903023F4BD
:103720004073216D0B43C2F8903015E04FF0000854
:10373000BBE7FEF75FF80546714BD3F8903013F006
:10374000020FE6D1FEF756F8401B41F2883398424B
:10375000F2D90327DDE73E46B8F1000F40F0A7801D
:10376000236813F0010F08D0654AD2F8883023F09F
:103770000303216A0B43C2F88830236813F0020F59
:1037800008D05F4AD2F8883023F00C03616A0B43FB
:10379000C2F88830236813F0200F08D0584AD2F8B6
:1037A000883023F44063A16A0B43C2F88830236851
:1037B00013F4007F08D0524AD2F8883023F4402313
:1037C000616B0B43C2F88830236813F4806F08D014
:1037D0004B4AD2F8883023F44013A16B0B43C2F854
:1037E0008830236813F0400F08D0454AD2F888305B
:1037F00023F44053E16A0B43C2F88830236813F482
:10380000807F08D03E4AD2F8883023F44033216BC1
:103810000B43C2F88830236813F4005F0FD0384A96
:10382000D2F8883023F04063216C0B43C2F8883013
:10383000236CB3F1006F40D0B3F1806F42D02368A6
:1038400013F4802F0FD02E4AD2F8883023F0406333
:10385000616C0B43C2F88830636CB3F1006F39D0F0
:10386000B3F1806F3BD0236813F4804F0CD0244A0F
:10387000D2F8883023F04053A16C0B43C2F8883053
:10388000A36CB3F1805F32D0236813F4004F08D0EB
:103890001B4AD2F8883023F08043E16C0B43C2F816
:1038A0008830304602B0BDE8F0813E4654E7144A05
:1038B000936D23F08053936552E7D36843F48013EC
:1038C000D360BCE70121201DFFF7F4FD0028B6D02E
:1038D0000646B4E7D36843F48013D360C3E70121FD
:1038E000201DFFF7E7FD0028BDD00646BBE70221FB
:1038F000201DFFF7DFFD0028C6D00646C4E700BF45
:10390000001002400070004090F83D30DBB2012B07
:1039100026D1022380F83D300268D36843F00103CA
:10392000D3600368114A93420CD0B3F1804F09D0A1
:1039300002F5A052934205D01A6842F001021A60C3
:103940000020704799680A4A0A40062A0AD0B2F550
:10395000803F09D01A6842F001021A6000207047C7
:10396000012070470020704700207047002C014064
:1039700007000100704770477047704710B5044654
:1039800003681A6912F0020F11D0DA6812F0020F00
:103990000DD06FF002021A610123037703689B695F
:1039A00013F0030F79D0FFF7E6FF00232377236896
:1039B0001A6912F0040F12D0DA6812F0040F0ED058
:1039C0006FF004021A610223237723689B6913F4C2
:1039D000407F68D02046FFF7CEFF0023237723687F
:1039E0001A6912F0080F12D0DA6812F0080F0ED020
:1039F0006FF008021A61042323772368DB6913F050
:103A0000030F57D02046FFF7B6FF00232377236824
:103A10001A6912F0100F12D0DA6812F0100F0ED0DF
:103A20006FF010021A61082323772368DB6913F40F
:103A3000407F46D02046FFF79EFF00232377236870
:103A40001A6912F0010F03D0DA6812F0010F3FD1AA
:103A500023681A6912F0800F03D0DA6812F0800F21
:103A60003DD123681A6912F4807F03D0DA6812F01E
:103A7000800F3BD123681A6912F0400F03D0DA6837
:103A800012F0400F39D123681A6912F0200F03D0C9
:103A9000DA6812F0200F37D110BDFFF76BFF204618
:103AA000FFF76AFF81E72046FFF764FF2046FFF734
:103AB00063FF92E72046FFF75DFF2046FFF75CFFBC
:103AC000A3E72046FFF756FF2046FFF755FFB4E770
:103AD0006FF001021A612046FDF7C0FAB8E76FF0F7
:103AE00080021A61204600F0B8F8BAE76FF48072DD
:103AF0001A61204600F0B2F8BCE76FF040021A618C
:103B00002046FFF73AFFBEE76FF020021A61204619
:103B100000F0A2F8C0E7000003681A4A904202D001
:103B2000B0F1804F03D123F070034A681343154A64
:103B300090420AD0B0F1804F07D002F5A0529042D7
:103B400003D002F58062904203D123F44073CA6827
:103B5000134323F080034A69134303608B68C362F5
:103B60000B688362074B984207D003F5A053984235
:103B700003D003F58063984201D10B6903630123ED
:103B800043617047002C014060B310B5044690F8C3
:103B90003D3013B3022384F83D30214651F8040B25
:103BA000FFF7BAFF012384F8483084F83E3084F8E8
:103BB0003F3084F8403084F8413084F8423084F853
:103BC000433084F8443084F8453084F8463084F833
:103BD000473084F83D30002010BD80F83C30FDF7C0
:103BE00093FCD7E70120704790F83C20012A2FD0A2
:103BF00030B40346012280F83C20022280F83D20A8
:103C0000006842688468134DA8421CD022F07002FC
:103C10000D682A4342601A680E48824206D0B2F10B
:103C2000804F03D000F5A050824204D124F08004DC
:103C3000896821439160012283F83D20002083F8A8
:103C40003C0030BC704722F470024D682A43DDE727
:103C500002207047002C01407047704770470000F9
:103C600010B504460168836802691343426913432F
:103C7000C269134308688C4A02401A430A602268EA
:103C8000536823F44053E1680B435360A1692268F1
:103C9000864B9A4201D0236A1943936823F4306318
:103CA0000B4393602368824A93421CD0814A93421B
:103CB0002DD07E4A934243D010227C498B4260D063
:103CC000E069B0F5004F00F08C80082A00F2E58032
:103CD000DFE812F0B400CA00B200E300CD00E30058
:103CE000E300E300D00002F55842D2F8882002F049
:103CF0000302032A09D8DFE802F002043806012291
:103D0000DBE70422D9E70822D7E71022D5E702F53E
:103D1000E632D2F8882002F00C020C2A0ED8DFE836
:103D200002F0070D0D0D090D0D0D260D0D0D0B00EB
:103D30000022C2E70422C0E70822BEE71022BCE747
:103D400002F5C832D2F8882002F44062B2F5006F62
:103D50000FD005D87AB1B2F5806F0ED10422ACE74E
:103D6000B2F5406F0BD10822A7E70222A5E7022295
:103D7000A3E70222A1E700229FE710229DE710227D
:103D80009BE7082A79D8DFE802F008782A782778B4
:103D9000787805004FF4004003E0FFF767FB002848
:103DA0006DD0626802EB420383426AD8B0EB023FF7
:103DB00069D8010E00025308C0184FF0000341F10A
:103DC0000001FCF7FDF9A0F540723B4B9A425CD82C
:103DD0002368D860002043E0FEF7EEFEDFE73748B7
:103DE000DFE7082A53D8DFE802F007210552245202
:103DF00052520B00314803E0FFF738FB002848D04F
:103E00006268530803EB4003B3FBF2F3A3F1100124
:103E10004FF6EF7291423ED89AB222F00F02C3F3EE
:103E2000420313432268D360002019E0FFF730FB00
:103E3000E4E7FEF7C1FEE1E7204802E0FFF716FBEA
:103E400068B3636800EB5300B0FBF3F0A0F110021D
:103E50004FF6EF739A4224D8236880B2D8600020CE
:103E600000236366A36610BDFFF712FBE8E7FEF7C9
:103E7000A3FEE5E74FF40040E3E70120F0E7002070
:103E8000EEE70120ECE70120EAE70120E8E7012066
:103E9000E6E70020E4E70120E2E70120E0E7002078
:103EA000DEE70120DCE700BFF369FFEF00800040A0
:103EB0000038014000440040FFFC0F000024F400E3
:103EC000436A13F0010F06D00268536823F40033ED
:103ED000816A0B435360436A13F0020F06D00268F5
:103EE000536823F48033C16A0B435360436A13F071
:103EF000040F06D00268536823F48023016B0B4340
:103F00005360436A13F0080F06D00268536823F425
:103F10000043416B0B435360436A13F0100F06D00C
:103F20000268936823F48053816B0B439360436A68
:103F300013F0200F06D00268936823F40053C16B7E
:103F40000B439360436A13F0400F0AD00268536832
:103F500023F48013016C0B435360036CB3F5801F93
:103F60000BD0436A13F0800F06D00268536823F425
:103F70000023816C0B43536070470268536823F43D
:103F8000C003416C0B435360EBE72DE9F843054652
:103F90000F4616469946DDF820802B68DC6937EA23
:103FA00004040CBF01240024B44253D1B8F1FF3FF4
:103FB000F3D0FDF71FFCA0EB090040452DD8B8F168
:103FC000000F2AD02B681A6812F0040FE5D0DA69C6
:103FD00012F4006FE1D04FF400621A622A6852E8CE
:103FE000003F23F4D07342E800310029F6D12A685B
:103FF00002F1080353E8003F23F00103083242E8CE
:1040000000310029F3D12023AB67EB67C5F880307E
:10401000002385F8743003201DE02A6852E8003F31
:1040200023F4D07342E800310029F6D12A6802F166
:10403000080353E8003F23F00103083242E800314F
:104040000029F3D12023AB67EB67002385F8743098
:10405000032000E00020BDE8F8832DE9F04182B0A4
:104060001E46836F202B56D104460D4690460029EC
:1040700055D0002A55D090F87430012B53D001232D
:1040800080F874300023C0F8803021238367FDF767
:10409000B1FB0746A4F85080A4F85280A368B3F59A
:1040A000805F05D04FF00008002384F8743014E0DE
:1040B000236913B14FF00008F6E7A8460025F3E79F
:1040C00038F8023B2268C3F308031385B4F8522082
:1040D00092B2013A92B2A4F85220B4F852309BB294
:1040E00073B100963B46002280212046FFF74DFF2A
:1040F000D8B9002DE4D015F8012B23681A85E5E71F
:1041000000963B46002240212046FFF73EFF70B953
:104110002023A36700E0022002B0BDE8F081012067
:10412000FAE70120F8E70220F6E70320F4E703208E
:10413000F2E730B583B004460023C0F88030FDF7C5
:1041400059FB05462268126812F0080F0DD123684A
:104150001B6813F0040F16D12023A367E367002028
:10416000206684F8740003B030BD6FF07E43009386
:10417000034600224FF400112046FFF706FF0028F7
:10418000E5D00320EFE76FF07E4300932B4600223B
:104190004FF480012046FFF7F8FE0028DCD0032012
:1041A000E1E768B310B50446836F03B32423A36724
:1041B0002268136823F0010313602046FFF750FDC7
:1041C000012813D0636ABBB92268536823F4904373
:1041D00053602268936823F02A039360226813686F
:1041E00043F0010313602046FFF7A3FF10BD80F8E2
:1041F0007430FDF7A9F9D9E72046FFF761FEE3E740
:10420000012070472DE9F047089D0C46002B4ED148
:1042100094468C458646B2FA82F262D94AB1C2F11E
:104220002003914020FA03F30CFA02FC194300FA30
:1042300002FE4FEA1C471FFA8CF6B1FBF7F44FEA77
:104240001E4307FB141143EA014304FB06F19942A4
:104250000AD91CEB030304F1FF3080F0138199426B
:1042600040F21081023C6344591A1FFA8EF3B1FBED
:10427000F7F007FB101143EA014300FB06F69E42EC
:104280000AD91CEB030300F1FF3180F0FD809E4250
:1042900040F2FA80634402389B1B40EA044000214C
:1042A0001DB1D3400022C5E90032BDE8F0878B4242
:1042B00005D90DB1C5E9000100210846F5E7B3FABB
:1042C00083F1002946D1A34202D39042C0F0F1808D
:1042D000861A64EB03030120002DE6D0C5E90063D4
:1042E000E3E7002A40F09180A1EB0C044FEA1C4860
:1042F0001FFA8CF70121B4FBF8F64FEA1E4308FBC6
:10430000164443EA044307FB06F0984208D91CEB25
:10431000030306F1FF3402D2984200F2CE80264613
:104320001C1A1FFA8EF3B4FBF8F008FB104443EAA2
:10433000044300FB07F79F4208D91CEB030300F17D
:10434000FF3402D29F4200F2B1802046DB1B40EADC
:104350000640A5E7C1F120068B4022FA06F71F436D
:1043600020FA06FC04FA01F343EA0C03F44000FAD5
:1043700001F8380C4FEA1349B4FBF0FE1FFA87FC32
:1043800000FB1E4449EA04440EFB0CF9A14502FA65
:1043900001F20AD93C190EF1FF3A80F08580A1455F
:1043A00040F28280AEF1020E3C44A4EB09041FFAF5
:1043B00083F9B4FBF0F300FB134449EA044403FB24
:1043C0000CFCA44507D93C1903F1FF3068D2A44581
:1043D00066D9023B3C4443EA0E40A0FB0293A4EBA7
:1043E0000C049C42CE469C4652D34FD055B1B8EBFC
:1043F0000E0364EB0C0404FA06F6CB40CC401E43DB
:10440000C5E900640021BDE8F087C2F1200320FA6D
:1044100003F10CFA02FC24FA03F394400C434FEA34
:104420001C4800FA02FE1FFA8CF7B3FBF8F008FBF9
:104430001031230C43EA014300FB07F1994208D9EC
:104440001CEB030300F1FF362CD299422AD9023823
:1044500063445B1AA4B2B3FBF8F108FB113344EADE
:10446000034401FB07F3A34208D91CEB040401F148
:10447000FF3613D2A34211D902396444E41A41EA47
:10448000004138E70446EFE6084605E7C845ADD2E7
:10449000B9EB020E63EB070C0138A7E73146EDE7F5
:1044A000034698E73046D4E7D6467EE763440238B1
:1044B0004CE70646234608460EE7023E63442FE7D4
:1044C000014B1868704700BF10000020024B13B169
:1044D000024800F005B9704700000000D54500080B
:1044E000830730B547D0541E002A3ED0CAB20346D7
:1044F00001E0013C39D303F8012B9D07F9D1032CCE
:104500002CD9CDB205EB05250F2C05EB054535D98A
:10451000A4F1100222F00F0C03F1100EE6444FEA52
:10452000121C1A46156055609560D56010327245B0
:10453000F8D10CF1010214F00C0F03EB021204F09D
:104540000F0C13D0ACF1040323F003030433134422
:1045500042F8045B9A42FBD10CF003042CB1C9B2BF
:104560001C4403F8011B9C42FBD130BD644613463A
:10457000002CF4D1F9E703461446C0E71A46A446D6
:10458000E0E700BF70B50F4B0F4DAB42A3EB050644
:1045900007D0B610002455F8043B01349847A642D2
:1045A000F9D806F023FA094D094B5E1BAB424FEADE
:1045B000A60606D0002455F8043B01349847A642CD
:1045C000F9D870BDA8AE0008A8AE0008A8AE0008D3
:1045D000B0AE000838B5074D074C2C1BA41005D011
:1045E000013C55F8043D9847002CF9D1BDE838400E
:1045F00006F002BAB4AE0008B0AE0008704700BFC3
:10460000704700BF704700BF704700BF0FB400B5D0
:10461000074983B004AB086853F8042B8168019301
:1046200000F01EFB03B05DF804EB04B0704700BF60
:104630001000002070B5054688B008460C46FBF710
:10464000DFFD224E6A6B059001214318CDE906611A
:1046500004A8022104940393AC6801900291002AFB
:104660002FD0636E13F0010FB4F90C3001D198050F
:1046700021D5990406D4626E43F4005322F400520B
:10468000A3816266284601AA214600F045F9636EBF
:1046900000280CBF0A254FF0FF35DA0702D4A389A2
:1046A0009B0502D5284608B070BDA06DFFF7ACFF92
:1046B000284608B070BDA06DFFF7A4FFB4F90C3018
:1046C000D7E7284600F0B6F8CBE700BFB4AA000849
:1046D000024B01461868FFF7ADBF00BF1000002075
:1046E000002301461A46184603F004BA024A034959
:1046F000034800F07BBA00BF38010020398200086F
:10470000180000200C4B4168994210B5044601D0B6
:1047100003F092FDA168094B994202D0204603F0B4
:104720008BFDE168064B994204D02046BDE810405D
:1047300003F082BD10BD00BF74080020DC0800201B
:10474000440900202DE9F843314C324B3248DFF860
:10475000CC90DFF8CC80334F186000252946042325
:10476000082204F15C00304EE360C4E90055C4E95E
:104770000455A5606566A561FFF7B2FE04F1580017
:10478000C4E90749C4E90987E662FFF737FF29460C
:10479000264B6367082204F1C400C4E91A55C4E932
:1047A0001E552567C4F8CC50C4F88050FFF798FE1A
:1047B00004F1680304F1C000C4F88430C4E922980D
:1047C000C4E92476FFF71AFF194BC4F8DC302946F8
:1047D00004F596700822C4E93455C4E93855C4F884
:1047E000D850C4F83451C4F8E850FFF779FE04F10A
:1047F000D003C4E93D87C4F8F09004F59470C4F880
:10480000FC60C4F8EC30BDE8F843FFF7F7BE00BF2A
:1048100074080020AC090020ED4600088948000813
:10482000AD480008ED4800081149000809000100E2
:104830001200020010B504460A48FFF7E3FE636B5E
:1048400023B9094B094A1B68626323B1BDE81040D4
:104850000448FFF7D9BEFFF775FFBDE810400148D7
:10486000FFF7D2BE70080020AC0900200547000801
:104870000148FFF7C7BE00BF700800200148FFF7DE
:10488000C3BE00BF7008002010B50C46B1F90E1071
:1048900005F0A4FA002803DB236D0344236510BD53
:1048A000A38923F48053A38110BD00BF2DE9F041FB
:1048B0000C46B1F90C101F46CB05054616460BD425
:1048C00021F48051A1813B46B4F90E1032462846AE
:1048D000BDE8F04100F0AEB9B4F90E100223002299
:1048E00005F066FAB4F90C10EAE700BF10B50C4603
:1048F000B1F90E1005F05CFAB4F90C30421C0EBF91
:1049000023F4805343F480532065A38110BD00BF7E
:10491000B1F90E1004F0E4BD9368002B7BD02DE9B3
:10492000F04F8046B1F90C001746020783B00C46E1
:1049300023D50B690BB310F002033D6829D04FF06B
:10494000000ADFF8A4B256465E453346524628BFF9
:104950005B464046002E4BD0E169D4F824C0E047C6
:1049600000284EDDBB681B1A8244361ABB60002B40
:10497000EAD1002003B0BDE8F08F2146404603F0A5
:10498000CBFC002842D1B4F90C003D6810F00203C2
:10499000D5D110F0010940D14E462EB38305D4F88D
:1049A00008B07FD5B3455A4600F2B08010F4906F3E
:1049B00040F0BD8020680192494603F08DFBA3685A
:1049C000019AA3EB0B012368A1601344B246236054
:1049D0000026BB68A3EB0A03D144BB60002BC8D000
:1049E000B4F90C00002ED9D1D5E900960835D4E7EA
:1049F000D5E900A60835A7E72146404604F016FE93
:104A000080B3B4F90C3043F04003A3814FF0FF3082
:104A100003B0BDE8F08F002070471E46BA469946A5
:104A200018461F4666B388B34A46D4E904C32068D3
:104A3000A168B24228BF3246604504D901EB030B9E
:104A40005A4500F3A680934264DCE169D4F824C09F
:104A50003A464046E047B0F1000BD2DDB9EB0B0916
:104A6000CAD00120DAF80830A3EB0B035F44A6EBB1
:104A70000B06CAF80830002B3FF47BAF002ED2D1D2
:104A80006E682B460835002EFAD01F6832460A2180
:104A90003846FBF725FC002800F09D800130A0EB94
:104AA0000709C1E720682369984217D86269B242B2
:104AB00014D86FF00043B34228BF3346E16993FB3B
:104AC000F2F3D4F824C002FB03F340464A46E04721
:104AD000B0F1000A95DDA6EB0A067AE7B345DA469F
:104AE00028BFB2465246494603F0F6FAA368226848
:104AF000A3EB0A035244A3602260002BEBD12146B2
:104B0000404604F093FD0028E5D07AE72068B346DC
:104B1000324650E73946019203F0DEFA019AA36863
:104B20009B1AA360236813442360934696E7226888
:104B30002369A2EB030A626902EB420202EBD27222
:104B40000AF1010131445210914292BF93468B46C3
:104B50000A4641052CD51146404603F00FF80028BF
:104B60003CD0524621690190FBF70AFCA289019BC7
:104B700022F4906242F08002A28103EB0A002361DA
:104B8000ABEB0A03C4F814B0A3602060B34632460E
:104B900011E739465A4603F09FFA23685B442360C5
:104BA0002146404604F042FD00283FF457AF28E775
:104BB0001946404604F09CFD03460028DDD12169DA
:104BC000404604F097FFB4F90C300C2223F0800328
:104BD000C8F8002017E7721C914626E70C22B4F9AA
:104BE0000C30C8F800200EE700FCFF7F2DE9F843E9
:104BF00080460F4616464FF00009D6E90154013DA4
:104C000011D4A389012B05F1FF3508D9B4F90E3071
:104C10000133214603D04046B84749EA00096B1CDE
:104C200004F16804EDD13668002EE6D14846BDE8AF
:104C3000F88300BF38B50C46084D8446114620461F
:104C40001A4600232B606446FCF726FD431C00D067
:104C500038BD2B68002BFBD0236038BD740B0020BF
:104C60002DE9F04FDDB01C4608919146834603F0D4
:104C7000DFFA036818931846FBF7C2FA0822179068
:104C800000212CA80D94FFF72BFCBBF1000F04D0E2
:104C9000DBF83430002B01F0EE80089A536ED80711
:104CA00040F15381B2F90C20970407D408994B6E58
:104CB00042F4005223F400538A814B66160740F1F8
:104CC000CB80089B1B69002B00F0C68002F01A0302
:104CD0000A2B00F0D0800023CDE93133CDE91A331F
:104CE000CDE91C33129319930A9300240023CDE9D4
:104CF000143433AA309206925E46CDF81C90079F7A
:104D0000984BD3F8E44003F08DFA03462CA80090AA
:104D10003A4628A93046A047002800F0CB80C0F2D0
:104D2000C180289A252A034601D01F44E8E7079B43
:104D3000B7EB0309054640F0C28000238DF8973099
:104D40009A460B937B787C1C4FF0FF3B0134A3F118
:104D500020025A2A00F20881DFE812F0A7020601B9
:104D60000601A3020601060106016A00060106010A
:104D70005E028102060169028A02060186025B0068
:104D80005B005B005B005B005B005B005B005B004B
:104D900006010601060106010601060106018A0157
:104DA0000601E3010E038A018A018A010601060158
:104DB00006010601030306010601B1020601060110
:104DC000060101020601F002060106015A0706016A
:104DD00006010601060106010601060106018A0117
:104DE0000601E30138028A018A018A01770238024A
:104DF000DF0106016D020601370351072503DF01BC
:104E0000060101027C005507060106017E07060126
:104E10007C00A3F13002002114F8013B01EB810179
:104E200002EB4101A3F13002092AF5D90B918EE77B
:104E3000304603F0FDF943681C931846FBF7E0F990
:104E40001D900546304603F0F3F983681A93002D50
:104E500040F06286237879E7089D5846294603F09A
:104E60005BFA002841F00984B5F90C2002F01A031E
:104E70000A2B7FF430AF0899B1F90E30002BFFF602
:104E80002AAF4B6ED80702D4920541F12A820899C5
:104E900023464A46584601F073FD0A900A985DB0D1
:104EA000BDE8F08F082200212CA8FFF719FB012391
:104EB0001F4425E7079BB7EB0309054614D0DDE93E
:104EC0000623C2E90039329B4B443293319B0133B4
:104ED000072B319312DC1346083306930A9B4B448D
:104EE0000A93002D7FF429AF329B002B41F0E08123
:104EF000089B0022B3F90C3031921AE0089930AACD
:104F0000304601F0B9FD88B933AB0693E6E708995E
:104F100030AA304601F0B0FD002800F09C80B34676
:104F20000C9B1BB10C99584604F0E4FD089BB3F9A7
:104F30000C30089A526ED00740F1E5805A0601F114
:104F4000A8830A985DB0BDE8F08F089BB3F90C20E8
:104F500091053FF5A9AE1D46986DFFF753FBB5F9D6
:104F60000C20A1E658050020CDE90E34002BBBD063
:104F700000228DF80C31CDE91022012309939846C7
:104F800043AB8DF897200C929346139207931AF037
:104F9000020302D00999023109911AF0840405D163
:104FA0000B9909980D1A002D00F39883329F82B156
:104FB000069801224260319A013201370DF19701C2
:104FC000072A32973192016000F3EB8302460832E0
:104FD000069283B1319B0699013326AA02370A60F3
:104FE000072B4FF00202329731934A6000F3E783B8
:104FF0000B4608330693802C00F07A82ABEB080551
:10500000002D00F3BB821AF4807F40F0F681DDE9C9
:1050100006231360319BC2F8048001334744072BF9
:105020003297319300F3FE821346083306931AF049
:10503000040F05D00B9B099A9C1A002C00F3CB831C
:10504000DDE90A3209998A42ACBF9B185B180A93C2
:10505000002F7FF45CAF002331930C9B1BB10C99A4
:10506000304604F047FD33AB06930F9B079346E6AB
:10507000CDE90E340D9B073323F00702F2E802342A
:10508000CDE91434DDE9144525F000432193209443
:10509000DDE920780D92B54B4FF0FF32384641469E
:1050A000FBF75EFE002840F04F85B04B4FF0FF321B
:1050B00038464146FBF736FE002840F04585002281
:1050C000002320462946FBF723FE002841F01F82DB
:1050D0009DF89720A64CA74B2AF0800A0E994729E5
:1050E000C8BF1C460023CDE91033032107940C935D
:1050F000099188469B461393002A3FF448AF099BC9
:105100000133099343E799053FF518AF089CA06D5B
:10511000FFF77AFAB4F90C3010E723784AF0200A46
:1051200014E6432BCDE90E3400F0F2851AF0100F8F
:1051300040F0EE850D9B4FF0010853F8042BCDF89D
:1051400024808DF80C210D9343AC0022CDE9102270
:1051500007948DF897200C929346139217E70D9FB2
:10516000CDE90E3400238DF8973057F8043B0793B0
:10517000002B00F0BA850E9B532B00F096861AF098
:105180001003109340F09186BBF1FF3F00F0FD87C4
:10519000109907985A46FBF7A3F80C90002801F0E5
:1051A00083830C9B079A0D97A3EB020828EAE87308
:1051B000DDF840B0099373239DF89720CDF84CB0EB
:1051C000CDF844B0CDF830B00E9395E71AF0200F2B
:1051D000CDE90E3400F0D8800D9B073323F0070390
:1051E0001A46596852F8083B0D920A460029C0F247
:1051F0007884BBF1FF3F00F0C48253EA02012AF039
:10520000800540F0BF82BBF1000F40F0C082AA468B
:105210005CABD846079383E00D9B53F8042B0B92AD
:10522000002A80F225840B9A0D9352420B92237828
:105230004AF0040A8AE523786C2B03BF63784AF0AE
:10524000200A01344AF0100A80E52378682B03BF56
:1052500063784AF4007A01344AF0400A76E52B2359
:105260008DF89730237871E523784AF0800A6DE550
:10527000214611F8013B2A2B01F04583A3F13002AE
:10528000092A0C464FF0000B3FF661AD14F8013BC4
:105290000BEB8B0B02EB4B0BA3F13002092AF5D978
:1052A00055E523784AF0010A50E59DF89730002B28
:1052B0007FF4D0AD20238DF89730237846E5CDE9F3
:1052C0000E344AF0100A1AF0200200F0B1830D9B50
:1052D000073323F0070319465A6851F8083B0D912C
:1052E0002AF4806500210020BBF1FF3F8DF8970074
:1052F00000F0E18053EA020025F0800A40F0DA80F5
:10530000BBF1000F40F0BC85002981D115F00108E8
:105310001BBF30238DF86F315CAB0DF26F13079319
:10532000C3454FF000035946B8BF4146CDE910339D
:105330009DF897200C9309911393DDE6CDE90E3487
:105340004AF0100515F0200200F07F830D9B073313
:1053500023F0070319465A6851F8083B0D910121C3
:10536000C1E723784AF0080AF0E400BFFFFFEF7FAF
:10537000B8AA0008BCAA00084AF0100A1AF0200FC8
:10538000CDE90E347FF428AF1AF0100F0D9A40F0DB
:10539000A0831AF0400F00F0988332F9043B0D927D
:1053A000DA17114622E70D9A0F9452F8043B0D923A
:1053B00047F63002ADF898207820A04A19924AF0BA
:1053C0000205002202210E908DE71AF0200F0F94A3
:1053D00040F0B0831AF0100F40F0CA851AF0400F69
:1053E00040F0CB861AF4007F00F0C2850D9B0A992D
:1053F00053F8042B0D93117037E60E9B652B40F389
:105400002381DDE9140100220023FBF777FC00284B
:1054100000F02582319B0699894A0A6001330137E1
:105420000122072B329731934A6000F32E850B46F9
:1054300008330693279B129A934280F21483179B9A
:10544000069A18991F44C2E90013319B3297013321
:10545000072B319300F33C84134608330693129BC9
:105460005C1E002C7FF7E3AD102C319B41F336829C
:10547000DFF8D091069ADDF82080CDF858901025FD
:1054800004E00832103C102C40F3648501331037DF
:10549000072BC2E90095CDE93137F2DD30AA41464C
:1054A000304601F0E9FA00287FF439ADDDE9313703
:1054B00033AAE7E75546012900F06481022900F08C
:1054C0004C815CAC03F00701DB0843EA4273D2086D
:1054D000303153EA0207204604F8011DF2D1EF07EC
:1054E000079400F145825CABAA46A3EB040817E7DA
:1054F0000B9B099A9D1A002D7FF780AD102D319BD3
:1055000041F350814F48DDF8189016903946102429
:105510001A46074604E0103D102D09F1080916DD72
:1055200001321031072AC9E90074CDE93121F2DDD9
:10553000089930AA30460DF1CC0901F09DFA0028F7
:105540007FF4EDAC103D102DDDE93121E8DCCDF824
:1055500018900F461346069A1699116001332F448E
:10556000072BCDE93137556000F38A831346ABEB47
:1055700008050833002D06937FF745AD314A319B6E
:105580001692102D21DD069A089C4FF0100B04E0B6
:10559000103D102D02F1080216DD013329491037A4
:1055A000072BC2E9001BCDE93137F1DD30AA2146D6
:1055B000304601F061FA00287FF4B1AC103D102DA7
:1055C000DDE9313733AAE8DC0692069A16991160B4
:1055D00001332F44072BCDE93137556000F31B828F
:1055E0001346083306930EE5179B0698189CDA19A4
:1055F000C0E90043319B32920133072B319300F312
:10560000618600F108080029C1F258800799C8F89E
:1056100000101299C8F8041001338F18072BCDE938
:10562000313757DD089930AA304601F025FA0028B5
:105630007FF475AC33AB329F0693F8E4C8AA000838
:10564000F8AA0008FCAA0008129B012B40F39E81D7
:10565000DDE90623319D1360013501370123072D54
:1056600032973195536000F3868302F10808179B47
:10567000189A01351F44072DC8E90023CDE9315799
:1056800000F36C8308F10808DDE91401002200230F
:10569000FBF734FB002840F09181129B079C0135F9
:1056A000013B01341F44072DC8F800403195C8F86C
:1056B0000430329700F3FF8208F108081B9BC8F8FA
:1056C000043001351F44072D2AABCDE93157C8F806
:1056D0000030A7DC08F108030693A8E4102DDDE9EB
:1056E0003121DFF8D09227DDCDE91E481027069C36
:1056F000DDF82080169304E0103D102D04F108041D
:1057000015DD01321031072AC4E90097CDE93121B6
:10571000F2DD30AA4146304633AC01F0ADF9002845
:105720007FF4FDAB103D102DDDE93121E9DC06945D
:10573000169BDDF87C801E9C069801324F19072AC3
:10574000CDE93127C0F80090456000F3838302461D
:10575000083206929DF8972029E4199C5CA903F071
:105760000F001B09205C01F8010D43EA02731209C6
:1057700053EA0200F3D15CAB0791AA46A3EB010800
:10578000CEE555460A2B72F1000180F009833033D3
:105790008DF86F310DF26F13AA464FF00108079391
:1057A000BEE50899169330AA304601F065F9002845
:1057B0007FF4B5AB33AB0693329F169B09E408998F
:1057C00030AA304601F058F900287FF4A8AB33AB7B
:1057D000329F06930FE4102C319BDFF8D89129DD1E
:1057E0004A46DDF81880DDF820A0B146102516469F
:1057F00004E0103C102C08F1080816DD01331037C6
:10580000072BC8E90065CDE93137F2DD30AA5146F2
:1058100048460DF1CC0801F02FF9002840F04283F2
:10582000103C102CDDE93137E8DC3246CDF8188029
:105830004E4691460133069A2744072BC2E900944D
:10584000CDE931377FF7FCAB089930AA304601F03B
:1058500013F900287FF463AB329FFFF7F1BB279960
:10586000002940F30981109C129A079B9442A8BF1B
:105870001446002C1A440E920DDD069AC2E900343B
:10588000319B01332744072B3297319300F37F86F6
:10589000134608330693109D002CA8BF2D1B002D26
:1058A00000F36E83DDF81CB0109B1AF4806F9B44EC
:1058B00040F05E85279C129B9C4203DB1AF0010F8F
:1058C00000F03584069B1799189A1A6059601A4699
:1058D000319B01330F44072B3297319300F36486D9
:1058E000134608330693129B1C1B0E9BA3EB0B0560
:1058F000A542A8BF2546002D0EDD319B069A013337
:105900002F44072BC2F800B055603297319300F353
:105910009D86134608330693002DA8BF641B002CF8
:105920007FF785AB102C319B40F3D887DFF8889048
:10593000069ADDF82080CDF85890102504E0083252
:10594000103C102C40F3068301331037072BC2E9BB
:105950000095CDE93137F2DD30AA4146304601F0FD
:105960008BF800287FF4DBAADDE9313733AAE7E7BB
:10597000302900F07681079A3023023802F8013C82
:105980005CABAA46A3EB00080790C9E41AF0010F2C
:105990007FF45EAEDDE90623319D136001350137EA
:1059A0000123072D32973195536000F3848102F172
:1059B000080883E60CAB0008FCAA0008129B5C1EDA
:1059C000002C7FF77BAEAA4B1693102C40F3678117
:1059D000CDF818A0DDF820B04FF010099A4605E088
:1059E00008F10808103C102C40F35781013510379E
:1059F000072DC8E900A9CDE93157F1DD30AA594694
:105A0000304601F039F800287FF489AADDE93157E2
:105A10000DF1CC08E6E7089930AA304601F02CF8E1
:105A200000287FF47CAA33AB329F0693FFF7EBBAD2
:105A30001AF010030D996AD11AF0400063D01A468B
:105A400051F8043B0D919BB24AE415F010030D99F7
:105A500053D115F040004CD01A4651F8043B0D913B
:105A60009BB201213FE41AF0010F3FF4E0AAE6E403
:105A70000D932378FFF76AB9319B06987D4A02603F
:105A8000013301370122072B32973193426000F333
:105A90005E8503460833069300297FF4A5AD129A6C
:105AA0000AF0010313433FF4C2AA179B0699189802
:105AB000DA19C1E90003319B32920133072B31938C
:105AC00000F3008401F10808A0E51AF4007F40F01B
:105AD000408352F8043B0D92DA1711460029BFF6B5
:105AE00088AB5B4262EB420255462D200121FFF755
:105AF000FBBB15F4007240F0248351F8043B0D9178
:105B00000121FFF7F0BB1AF4007240F0298351F82D
